{
  "_format": "hh-sol-artifact-1",
  "contractName": "NFTMarketplace",
  "sourceName": "contracts/NFTMarketplace.sol",
  "abi": [
    {
      "inputs": [],
      "stateMutability": "nonpayable",
      "type": "constructor"
    },
    {
      "anonymous": false,
      "inputs": [
        {
          "indexed": true,
          "internalType": "address",
          "name": "owner",
          "type": "address"
        },
        {
          "indexed": true,
          "internalType": "address",
          "name": "approved",
          "type": "address"
        },
        {
          "indexed": true,
          "internalType": "uint256",
          "name": "tokenId",
          "type": "uint256"
        }
      ],
      "name": "Approval",
      "type": "event"
    },
    {
      "anonymous": false,
      "inputs": [
        {
          "indexed": true,
          "internalType": "address",
          "name": "owner",
          "type": "address"
        },
        {
          "indexed": true,
          "internalType": "address",
          "name": "operator",
          "type": "address"
        },
        {
          "indexed": false,
          "internalType": "bool",
          "name": "approved",
          "type": "bool"
        }
      ],
      "name": "ApprovalForAll",
      "type": "event"
    },
    {
      "anonymous": false,
      "inputs": [
        {
          "indexed": false,
          "internalType": "uint256",
          "name": "_fromTokenId",
          "type": "uint256"
        },
        {
          "indexed": false,
          "internalType": "uint256",
          "name": "_toTokenId",
          "type": "uint256"
        }
      ],
      "name": "BatchMetadataUpdate",
      "type": "event"
    },
    {
      "anonymous": false,
      "inputs": [
        {
          "indexed": true,
          "internalType": "uint256",
          "name": "tokenId",
          "type": "uint256"
        },
        {
          "indexed": false,
          "internalType": "address",
          "name": "seller",
          "type": "address"
        },
        {
          "indexed": false,
          "internalType": "address",
          "name": "owner",
          "type": "address"
        },
        {
          "indexed": false,
          "internalType": "uint256",
          "name": "price",
          "type": "uint256"
        },
        {
          "indexed": false,
          "internalType": "bool",
          "name": "sold",
          "type": "bool"
        }
      ],
      "name": "MarketItemCreated",
      "type": "event"
    },
    {
      "anonymous": false,
      "inputs": [
        {
          "indexed": false,
          "internalType": "uint256",
          "name": "_tokenId",
          "type": "uint256"
        }
      ],
      "name": "MetadataUpdate",
      "type": "event"
    },
    {
      "anonymous": false,
      "inputs": [
        {
          "indexed": true,
          "internalType": "address",
          "name": "from",
          "type": "address"
        },
        {
          "indexed": true,
          "internalType": "address",
          "name": "to",
          "type": "address"
        },
        {
          "indexed": true,
          "internalType": "uint256",
          "name": "tokenId",
          "type": "uint256"
        }
      ],
      "name": "Transfer",
      "type": "event"
    },
    {
      "inputs": [
        {
          "internalType": "address",
          "name": "to",
          "type": "address"
        },
        {
          "internalType": "uint256",
          "name": "tokenId",
          "type": "uint256"
        }
      ],
      "name": "approve",
      "outputs": [],
      "stateMutability": "nonpayable",
      "type": "function"
    },
    {
      "inputs": [
        {
          "internalType": "address",
          "name": "owner",
          "type": "address"
        }
      ],
      "name": "balanceOf",
      "outputs": [
        {
          "internalType": "uint256",
          "name": "",
          "type": "uint256"
        }
      ],
      "stateMutability": "view",
      "type": "function"
    },
    {
      "inputs": [
        {
          "internalType": "uint256",
          "name": "tokenId",
          "type": "uint256"
        },
        {
          "internalType": "uint256",
          "name": "price",
          "type": "uint256"
        }
      ],
      "name": "createMarketItem",
      "outputs": [],
      "stateMutability": "payable",
      "type": "function"
    },
    {
      "inputs": [
        {
          "internalType": "string",
          "name": "tokenURI",
          "type": "string"
        },
        {
          "internalType": "uint256",
          "name": "price",
          "type": "uint256"
        }
      ],
      "name": "createToken",
      "outputs": [
        {
          "internalType": "uint256",
          "name": "",
          "type": "uint256"
        }
      ],
      "stateMutability": "payable",
      "type": "function"
    },
    {
      "inputs": [],
      "name": "fetchMarketItems",
      "outputs": [
        {
          "components": [
            {
              "internalType": "uint256",
              "name": "tokenId",
              "type": "uint256"
            },
            {
              "internalType": "address payable",
              "name": "seller",
              "type": "address"
            },
            {
              "internalType": "address payable",
              "name": "owner",
              "type": "address"
            },
            {
              "internalType": "uint256",
              "name": "price",
              "type": "uint256"
            },
            {
              "internalType": "bool",
              "name": "sold",
              "type": "bool"
            },
            {
              "internalType": "bool",
              "name": "listed",
              "type": "bool"
            }
          ],
          "internalType": "struct NFTMarketplace.MarketItem[]",
          "name": "",
          "type": "tuple[]"
        }
      ],
      "stateMutability": "view",
      "type": "function"
    },
    {
      "inputs": [
        {
          "internalType": "uint256",
          "name": "tokenId",
          "type": "uint256"
        }
      ],
      "name": "getApproved",
      "outputs": [
        {
          "internalType": "address",
          "name": "",
          "type": "address"
        }
      ],
      "stateMutability": "view",
      "type": "function"
    },
    {
      "inputs": [
        {
          "internalType": "address",
          "name": "owner",
          "type": "address"
        },
        {
          "internalType": "address",
          "name": "operator",
          "type": "address"
        }
      ],
      "name": "isApprovedForAll",
      "outputs": [
        {
          "internalType": "bool",
          "name": "",
          "type": "bool"
        }
      ],
      "stateMutability": "view",
      "type": "function"
    },
    {
      "inputs": [],
      "name": "name",
      "outputs": [
        {
          "internalType": "string",
          "name": "",
          "type": "string"
        }
      ],
      "stateMutability": "view",
      "type": "function"
    },
    {
      "inputs": [
        {
          "internalType": "uint256",
          "name": "tokenId",
          "type": "uint256"
        }
      ],
      "name": "ownerOf",
      "outputs": [
        {
          "internalType": "address",
          "name": "",
          "type": "address"
        }
      ],
      "stateMutability": "view",
      "type": "function"
    },
    {
      "inputs": [
        {
          "internalType": "address",
          "name": "from",
          "type": "address"
        },
        {
          "internalType": "address",
          "name": "to",
          "type": "address"
        },
        {
          "internalType": "uint256",
          "name": "tokenId",
          "type": "uint256"
        }
      ],
      "name": "safeTransferFrom",
      "outputs": [],
      "stateMutability": "nonpayable",
      "type": "function"
    },
    {
      "inputs": [
        {
          "internalType": "address",
          "name": "from",
          "type": "address"
        },
        {
          "internalType": "address",
          "name": "to",
          "type": "address"
        },
        {
          "internalType": "uint256",
          "name": "tokenId",
          "type": "uint256"
        },
        {
          "internalType": "bytes",
          "name": "data",
          "type": "bytes"
        }
      ],
      "name": "safeTransferFrom",
      "outputs": [],
      "stateMutability": "nonpayable",
      "type": "function"
    },
    {
      "inputs": [
        {
          "internalType": "address",
          "name": "operator",
          "type": "address"
        },
        {
          "internalType": "bool",
          "name": "approved",
          "type": "bool"
        }
      ],
      "name": "setApprovalForAll",
      "outputs": [],
      "stateMutability": "nonpayable",
      "type": "function"
    },
    {
      "inputs": [
        {
          "internalType": "bytes4",
          "name": "interfaceId",
          "type": "bytes4"
        }
      ],
      "name": "supportsInterface",
      "outputs": [
        {
          "internalType": "bool",
          "name": "",
          "type": "bool"
        }
      ],
      "stateMutability": "view",
      "type": "function"
    },
    {
      "inputs": [],
      "name": "symbol",
      "outputs": [
        {
          "internalType": "string",
          "name": "",
          "type": "string"
        }
      ],
      "stateMutability": "view",
      "type": "function"
    },
    {
      "inputs": [
        {
          "internalType": "uint256",
          "name": "tokenId",
          "type": "uint256"
        }
      ],
      "name": "tokenURI",
      "outputs": [
        {
          "internalType": "string",
          "name": "",
          "type": "string"
        }
      ],
      "stateMutability": "view",
      "type": "function"
    },
    {
      "inputs": [
        {
          "internalType": "address",
          "name": "from",
          "type": "address"
        },
        {
          "internalType": "address",
          "name": "to",
          "type": "address"
        },
        {
          "internalType": "uint256",
          "name": "tokenId",
          "type": "uint256"
        }
      ],
      "name": "transferFrom",
      "outputs": [],
      "stateMutability": "nonpayable",
      "type": "function"
    }
  ],
  "bytecode": "0x60806040526658d15e17628000600a553480156200001c57600080fd5b506040518060400160405280600f81526020017f4e4654204d61726b6574706c61636500000000000000000000000000000000008152506040518060400160405280600481526020017f4e46544d0000000000000000000000000000000000000000000000000000000081525081600090816200009a919062000378565b508060019081620000ac919062000378565b505050600160078190555033600b60006101000a81548173ffffffffffffffffffffffffffffffffffffffff021916908373ffffffffffffffffffffffffffffffffffffffff1602179055506200045f565b600081519050919050565b7f4e487b7100000000000000000000000000000000000000000000000000000000600052604160045260246000fd5b7f4e487b7100000000000000000000000000000000000000000000000000000000600052602260045260246000fd5b600060028204905060018216806200018057607f821691505b60208210810362000196576200019562000138565b5b50919050565b60008190508160005260206000209050919050565b60006020601f8301049050919050565b600082821b905092915050565b600060088302620002007fffffffffffffffffffffffffffffffffffffffffffffffffffffffffffffffff82620001c1565b6200020c8683620001c1565b95508019841693508086168417925050509392505050565b6000819050919050565b6000819050919050565b600062000259620002536200024d8462000224565b6200022e565b62000224565b9050919050565b6000819050919050565b620002758362000238565b6200028d620002848262000260565b848454620001ce565b825550505050565b600090565b620002a462000295565b620002b18184846200026a565b505050565b5b81811015620002d957620002cd6000826200029a565b600181019050620002b7565b5050565b601f8211156200032857620002f2816200019c565b620002fd84620001b1565b810160208510156200030d578190505b620003256200031c85620001b1565b830182620002b6565b50505b505050565b600082821c905092915050565b60006200034d600019846008026200032d565b1980831691505092915050565b60006200036883836200033a565b9150826002028217905092915050565b6200038382620000fe565b67ffffffffffffffff8111156200039f576200039e62000109565b5b620003ab825462000167565b620003b8828285620002dd565b600060209050601f831160018114620003f05760008415620003db578287015190505b620003e785826200035a565b86555062000457565b601f19841662000400866200019c565b60005b828110156200042a5784890151825560018201915060208501945060208101905062000403565b868310156200044a578489015162000446601f8916826200033a565b8355505b6001600288020188555050505b505050505050565b6135c6806200046f6000396000f3fe6080604052600436106100f35760003560e01c80636352211e1161008a578063a22cb46511610059578063a22cb46514610334578063b88d4fde1461035d578063c87b56dd14610386578063e985e9c5146103c3576100f3565b80636352211e1461025f57806370a082311461029c57806372b3b620146102d957806395d89b4114610309576100f3565b80630f08efe0116100c65780630f08efe0146101c657806323b872dd146101f1578063361c19951461021a57806342842e0e14610236576100f3565b806301ffc9a7146100f857806306fdde0314610135578063081812fc14610160578063095ea7b31461019d575b600080fd5b34801561010457600080fd5b5061011f600480360381019061011a9190612053565b610400565b60405161012c919061209b565b60405180910390f35b34801561014157600080fd5b5061014a610461565b6040516101579190612146565b60405180910390f35b34801561016c57600080fd5b506101876004803603810190610182919061219e565b6104f3565b604051610194919061220c565b60405180910390f35b3480156101a957600080fd5b506101c460048036038101906101bf9190612253565b610539565b005b3480156101d257600080fd5b506101db610650565b6040516101e891906123fc565b60405180910390f35b3480156101fd57600080fd5b506102186004803603810190610213919061241e565b6108cc565b005b610234600480360381019061022f9190612471565b61092c565b005b34801561024257600080fd5b5061025d6004803603810190610258919061241e565b610b68565b005b34801561026b57600080fd5b506102866004803603810190610281919061219e565b610b88565b604051610293919061220c565b60405180910390f35b3480156102a857600080fd5b506102c360048036038101906102be91906124b1565b610c0e565b6040516102d091906124ed565b60405180910390f35b6102f360048036038101906102ee919061263d565b610cc5565b60405161030091906124ed565b60405180910390f35b34801561031557600080fd5b5061031e610d11565b60405161032b9190612146565b60405180910390f35b34801561034057600080fd5b5061035b600480360381019061035691906126c5565b610da3565b005b34801561036957600080fd5b50610384600480360381019061037f91906127a6565b610db9565b005b34801561039257600080fd5b506103ad60048036038101906103a8919061219e565b610e1b565b6040516103ba9190612146565b60405180910390f35b3480156103cf57600080fd5b506103ea60048036038101906103e59190612829565b610f2d565b6040516103f7919061209b565b60405180910390f35b6000634906490660e01b7bffffffffffffffffffffffffffffffffffffffffffffffffffffffff1916827bffffffffffffffffffffffffffffffffffffffffffffffffffffffff1916148061045a575061045982610fc1565b5b9050919050565b60606000805461047090612898565b80601f016020809104026020016040519081016040528092919081815260200182805461049c90612898565b80156104e95780601f106104be576101008083540402835291602001916104e9565b820191906000526020600020905b8154815290600101906020018083116104cc57829003601f168201915b5050505050905090565b60006104fe826110a3565b6004600083815260200190815260200160002060009054906101000a900473ffffffffffffffffffffffffffffffffffffffff169050919050565b600061054482610b88565b90508073ffffffffffffffffffffffffffffffffffffffff168373ffffffffffffffffffffffffffffffffffffffff16036105b4576040517f08c379a00000000000000000000000000000000000000000000000000000000081526004016105ab9061293b565b60405180910390fd5b8073ffffffffffffffffffffffffffffffffffffffff166105d36110ee565b73ffffffffffffffffffffffffffffffffffffffff1614806106025750610601816105fc6110ee565b610f2d565b5b610641576040517f08c379a0000000000000000000000000000000000000000000000000000000008152600401610638906129cd565b60405180910390fd5b61064b83836110f6565b505050565b6060600061065e60086111af565b9050600061066c60096111af565b61067660086111af565b6106809190612a1c565b90506000808267ffffffffffffffff81111561069f5761069e612512565b5b6040519080825280602002602001820160405280156106d857816020015b6106c5611f81565b8152602001906001900390816106bd5790505b50905060005b848110156108c157600c60006001836106f79190612a50565b815260200190815260200160002060040160019054906101000a900460ff16801561074f5750600c600060018361072e9190612a50565b815260200190815260200160002060040160009054906101000a900460ff16155b156108ae5760006001826107639190612a50565b90506000600c60008381526020019081526020016000209050806040518060c0016040529081600082015481526020016001820160009054906101000a900473ffffffffffffffffffffffffffffffffffffffff1673ffffffffffffffffffffffffffffffffffffffff1673ffffffffffffffffffffffffffffffffffffffff1681526020016002820160009054906101000a900473ffffffffffffffffffffffffffffffffffffffff1673ffffffffffffffffffffffffffffffffffffffff1673ffffffffffffffffffffffffffffffffffffffff168152602001600382015481526020016004820160009054906101000a900460ff161515151581526020016004820160019054906101000a900460ff16151515158152505084868151811061089157610890612a84565b5b60200260200101819052506001856108a99190612a50565b945050505b80806108b990612ab3565b9150506106de565b508094505050505090565b6108dd6108d76110ee565b826111bd565b61091c576040517f08c379a000000000000000000000000000000000000000000000000000000000815260040161091390612b6d565b60405180910390fd5b610927838383611252565b505050565b61093461154b565b60008111610977576040517f08c379a000000000000000000000000000000000000000000000000000000000815260040161096e90612bd9565b60405180910390fd5b600a5434146109bb576040517f08c379a00000000000000000000000000000000000000000000000000000000081526004016109b290612c45565b60405180910390fd5b6040518060c001604052808381526020013373ffffffffffffffffffffffffffffffffffffffff1681526020013073ffffffffffffffffffffffffffffffffffffffff16815260200182815260200160001515815260200160011515815250600c60008481526020019081526020016000206000820151816000015560208201518160010160006101000a81548173ffffffffffffffffffffffffffffffffffffffff021916908373ffffffffffffffffffffffffffffffffffffffff16021790555060408201518160020160006101000a81548173ffffffffffffffffffffffffffffffffffffffff021916908373ffffffffffffffffffffffffffffffffffffffff1602179055506060820151816003015560808201518160040160006101000a81548160ff02191690831515021790555060a08201518160040160016101000a81548160ff021916908315150217905550905050610b1d333084611252565b817fb640004f1d14576d0c209e240cad0410e0d8c0c33a09375861fbadae2588a98d3330846000604051610b549493929190612c65565b60405180910390a2610b6461159a565b5050565b610b8383838360405180602001604052806000815250610db9565b505050565b600080610b94836115a4565b9050600073ffffffffffffffffffffffffffffffffffffffff168173ffffffffffffffffffffffffffffffffffffffff1603610c05576040517f08c379a0000000000000000000000000000000000000000000000000000000008152600401610bfc90612cf6565b60405180910390fd5b80915050919050565b60008073ffffffffffffffffffffffffffffffffffffffff168273ffffffffffffffffffffffffffffffffffffffff1603610c7e576040517f08c379a0000000000000000000000000000000000000000000000000000000008152600401610c7590612d88565b60405180910390fd5b600360008373ffffffffffffffffffffffffffffffffffffffff1673ffffffffffffffffffffffffffffffffffffffff168152602001908152602001600020549050919050565b6000610cd160086115e1565b6000610cdd60086111af565b9050610ce933826115f7565b610cf38185611814565b6000831115610d0757610d06818461092c565b5b8091505092915050565b606060018054610d2090612898565b80601f0160208091040260200160405190810160405280929190818152602001828054610d4c90612898565b8015610d995780601f10610d6e57610100808354040283529160200191610d99565b820191906000526020600020905b815481529060010190602001808311610d7c57829003601f168201915b5050505050905090565b610db5610dae6110ee565b83836118b8565b5050565b610dca610dc46110ee565b836111bd565b610e09576040517f08c379a0000000000000000000000000000000000000000000000000000000008152600401610e0090612b6d565b60405180910390fd5b610e1584848484611a24565b50505050565b6060610e26826110a3565b6000600660008481526020019081526020016000208054610e4690612898565b80601f0160208091040260200160405190810160405280929190818152602001828054610e7290612898565b8015610ebf5780601f10610e9457610100808354040283529160200191610ebf565b820191906000526020600020905b815481529060010190602001808311610ea257829003601f168201915b505050505090506000610ed0611a80565b90506000815103610ee5578192505050610f28565b600082511115610f1a578082604051602001610f02929190612de4565b60405160208183030381529060405292505050610f28565b610f2384611a97565b925050505b919050565b6000600560008473ffffffffffffffffffffffffffffffffffffffff1673ffffffffffffffffffffffffffffffffffffffff16815260200190815260200160002060008373ffffffffffffffffffffffffffffffffffffffff1673ffffffffffffffffffffffffffffffffffffffff16815260200190815260200160002060009054906101000a900460ff16905092915050565b60007f80ac58cd000000000000000000000000000000000000000000000000000000007bffffffffffffffffffffffffffffffffffffffffffffffffffffffff1916827bffffffffffffffffffffffffffffffffffffffffffffffffffffffff1916148061108c57507f5b5e139f000000000000000000000000000000000000000000000000000000007bffffffffffffffffffffffffffffffffffffffffffffffffffffffff1916827bffffffffffffffffffffffffffffffffffffffffffffffffffffffff1916145b8061109c575061109b82611aff565b5b9050919050565b6110ac81611b69565b6110eb576040517f08c379a00000000000000000000000000000000000000000000000000000000081526004016110e290612cf6565b60405180910390fd5b50565b600033905090565b816004600083815260200190815260200160002060006101000a81548173ffffffffffffffffffffffffffffffffffffffff021916908373ffffffffffffffffffffffffffffffffffffffff160217905550808273ffffffffffffffffffffffffffffffffffffffff1661116983610b88565b73ffffffffffffffffffffffffffffffffffffffff167f8c5be1e5ebec7d5bd14f71427d1e84f3dd0314c0f7b2291e5b200ac8c7c3b92560405160405180910390a45050565b600081600001549050919050565b6000806111c983610b88565b90508073ffffffffffffffffffffffffffffffffffffffff168473ffffffffffffffffffffffffffffffffffffffff16148061120b575061120a8185610f2d565b5b8061124957508373ffffffffffffffffffffffffffffffffffffffff16611231846104f3565b73ffffffffffffffffffffffffffffffffffffffff16145b91505092915050565b8273ffffffffffffffffffffffffffffffffffffffff1661127282610b88565b73ffffffffffffffffffffffffffffffffffffffff16146112c8576040517f08c379a00000000000000000000000000000000000000000000000000000000081526004016112bf90612e7a565b60405180910390fd5b600073ffffffffffffffffffffffffffffffffffffffff168273ffffffffffffffffffffffffffffffffffffffff1603611337576040517f08c379a000000000000000000000000000000000000000000000000000000000815260040161132e90612f0c565b60405180910390fd5b6113448383836001611baa565b8273ffffffffffffffffffffffffffffffffffffffff1661136482610b88565b73ffffffffffffffffffffffffffffffffffffffff16146113ba576040517f08c379a00000000000000000000000000000000000000000000000000000000081526004016113b190612e7a565b60405180910390fd5b6004600082815260200190815260200160002060006101000a81549073ffffffffffffffffffffffffffffffffffffffff02191690556001600360008573ffffffffffffffffffffffffffffffffffffffff1673ffffffffffffffffffffffffffffffffffffffff168152602001908152602001600020600082825403925050819055506001600360008473ffffffffffffffffffffffffffffffffffffffff1673ffffffffffffffffffffffffffffffffffffffff16815260200190815260200160002060008282540192505081905550816002600083815260200190815260200160002060006101000a81548173ffffffffffffffffffffffffffffffffffffffff021916908373ffffffffffffffffffffffffffffffffffffffff160217905550808273ffffffffffffffffffffffffffffffffffffffff168473ffffffffffffffffffffffffffffffffffffffff167fddf252ad1be2c89b69c2b068fc378daa952ba7f163c4a11628f55a4df523b3ef60405160405180910390a46115468383836001611bb0565b505050565b600260075403611590576040517f08c379a000000000000000000000000000000000000000000000000000000000815260040161158790612f78565b60405180910390fd5b6002600781905550565b6001600781905550565b60006002600083815260200190815260200160002060009054906101000a900473ffffffffffffffffffffffffffffffffffffffff169050919050565b6001816000016000828254019250508190555050565b600073ffffffffffffffffffffffffffffffffffffffff168273ffffffffffffffffffffffffffffffffffffffff1603611666576040517f08c379a000000000000000000000000000000000000000000000000000000000815260040161165d90612fe4565b60405180910390fd5b61166f81611b69565b156116af576040517f08c379a00000000000000000000000000000000000000000000000000000000081526004016116a690613050565b60405180910390fd5b6116bd600083836001611baa565b6116c681611b69565b15611706576040517f08c379a00000000000000000000000000000000000000000000000000000000081526004016116fd90613050565b60405180910390fd5b6001600360008473ffffffffffffffffffffffffffffffffffffffff1673ffffffffffffffffffffffffffffffffffffffff16815260200190815260200160002060008282540192505081905550816002600083815260200190815260200160002060006101000a81548173ffffffffffffffffffffffffffffffffffffffff021916908373ffffffffffffffffffffffffffffffffffffffff160217905550808273ffffffffffffffffffffffffffffffffffffffff16600073ffffffffffffffffffffffffffffffffffffffff167fddf252ad1be2c89b69c2b068fc378daa952ba7f163c4a11628f55a4df523b3ef60405160405180910390a4611810600083836001611bb0565b5050565b61181d82611b69565b61185c576040517f08c379a0000000000000000000000000000000000000000000000000000000008152600401611853906130e2565b60405180910390fd5b8060066000848152602001908152602001600020908161187c91906132ae565b507ff8e1a15aba9398e019f0b49df1a4fde98ee17ae345cb5f6b5e2c27f5033e8ce7826040516118ac91906124ed565b60405180910390a15050565b8173ffffffffffffffffffffffffffffffffffffffff168373ffffffffffffffffffffffffffffffffffffffff1603611926576040517f08c379a000000000000000000000000000000000000000000000000000000000815260040161191d906133cc565b60405180910390fd5b80600560008573ffffffffffffffffffffffffffffffffffffffff1673ffffffffffffffffffffffffffffffffffffffff16815260200190815260200160002060008473ffffffffffffffffffffffffffffffffffffffff1673ffffffffffffffffffffffffffffffffffffffff16815260200190815260200160002060006101000a81548160ff0219169083151502179055508173ffffffffffffffffffffffffffffffffffffffff168373ffffffffffffffffffffffffffffffffffffffff167f17307eab39ab6107e8899845ad3d59bd9653f200f220920489ca2b5937696c3183604051611a17919061209b565b60405180910390a3505050565b611a2f848484611252565b611a3b84848484611bb6565b611a7a576040517f08c379a0000000000000000000000000000000000000000000000000000000008152600401611a719061345e565b60405180910390fd5b50505050565b606060405180602001604052806000815250905090565b6060611aa2826110a3565b6000611aac611a80565b90506000815111611acc5760405180602001604052806000815250611af7565b80611ad684611d3d565b604051602001611ae7929190612de4565b6040516020818303038152906040525b915050919050565b60007f01ffc9a7000000000000000000000000000000000000000000000000000000007bffffffffffffffffffffffffffffffffffffffffffffffffffffffff1916827bffffffffffffffffffffffffffffffffffffffffffffffffffffffff1916149050919050565b60008073ffffffffffffffffffffffffffffffffffffffff16611b8b836115a4565b73ffffffffffffffffffffffffffffffffffffffff1614159050919050565b50505050565b50505050565b6000611bd78473ffffffffffffffffffffffffffffffffffffffff16611e0b565b15611d30578373ffffffffffffffffffffffffffffffffffffffff1663150b7a02611c006110ee565b8786866040518563ffffffff1660e01b8152600401611c2294939291906134d3565b6020604051808303816000875af1925050508015611c5e57506040513d601f19601f82011682018060405250810190611c5b9190613534565b60015b611ce0573d8060008114611c8e576040519150601f19603f3d011682016040523d82523d6000602084013e611c93565b606091505b506000815103611cd8576040517f08c379a0000000000000000000000000000000000000000000000000000000008152600401611ccf9061345e565b60405180910390fd5b805181602001fd5b63150b7a0260e01b7bffffffffffffffffffffffffffffffffffffffffffffffffffffffff1916817bffffffffffffffffffffffffffffffffffffffffffffffffffffffff191614915050611d35565b600190505b949350505050565b606060006001611d4c84611e2e565b01905060008167ffffffffffffffff811115611d6b57611d6a612512565b5b6040519080825280601f01601f191660200182016040528015611d9d5781602001600182028036833780820191505090505b509050600082602001820190505b600115611e00578080600190039150507f3031323334353637383961626364656600000000000000000000000000000000600a86061a8153600a8581611df457611df3613561565b5b04945060008503611dab575b819350505050919050565b6000808273ffffffffffffffffffffffffffffffffffffffff163b119050919050565b600080600090507a184f03e93ff9f4daa797ed6e38ed64bf6a1f0100000000000000008310611e8c577a184f03e93ff9f4daa797ed6e38ed64bf6a1f0100000000000000008381611e8257611e81613561565b5b0492506040810190505b6d04ee2d6d415b85acef81000000008310611ec9576d04ee2d6d415b85acef81000000008381611ebf57611ebe613561565b5b0492506020810190505b662386f26fc100008310611ef857662386f26fc100008381611eee57611eed613561565b5b0492506010810190505b6305f5e1008310611f21576305f5e1008381611f1757611f16613561565b5b0492506008810190505b6127108310611f46576127108381611f3c57611f3b613561565b5b0492506004810190505b60648310611f695760648381611f5f57611f5e613561565b5b0492506002810190505b600a8310611f78576001810190505b80915050919050565b6040518060c0016040528060008152602001600073ffffffffffffffffffffffffffffffffffffffff168152602001600073ffffffffffffffffffffffffffffffffffffffff168152602001600081526020016000151581526020016000151581525090565b6000604051905090565b600080fd5b600080fd5b60007fffffffff0000000000000000000000000000000000000000000000000000000082169050919050565b61203081611ffb565b811461203b57600080fd5b50565b60008135905061204d81612027565b92915050565b60006020828403121561206957612068611ff1565b5b60006120778482850161203e565b91505092915050565b60008115159050919050565b61209581612080565b82525050565b60006020820190506120b0600083018461208c565b92915050565b600081519050919050565b600082825260208201905092915050565b60005b838110156120f05780820151818401526020810190506120d5565b60008484015250505050565b6000601f19601f8301169050919050565b6000612118826120b6565b61212281856120c1565b93506121328185602086016120d2565b61213b816120fc565b840191505092915050565b60006020820190508181036000830152612160818461210d565b905092915050565b6000819050919050565b61217b81612168565b811461218657600080fd5b50565b60008135905061219881612172565b92915050565b6000602082840312156121b4576121b3611ff1565b5b60006121c284828501612189565b91505092915050565b600073ffffffffffffffffffffffffffffffffffffffff82169050919050565b60006121f6826121cb565b9050919050565b612206816121eb565b82525050565b600060208201905061222160008301846121fd565b92915050565b612230816121eb565b811461223b57600080fd5b50565b60008135905061224d81612227565b92915050565b6000806040838503121561226a57612269611ff1565b5b60006122788582860161223e565b925050602061228985828601612189565b9150509250929050565b600081519050919050565b600082825260208201905092915050565b6000819050602082019050919050565b6122c881612168565b82525050565b60006122d9826121cb565b9050919050565b6122e9816122ce565b82525050565b6122f881612080565b82525050565b60c08201600082015161231460008501826122bf565b50602082015161232760208501826122e0565b50604082015161233a60408501826122e0565b50606082015161234d60608501826122bf565b50608082015161236060808501826122ef565b5060a082015161237360a08501826122ef565b50505050565b600061238583836122fe565b60c08301905092915050565b6000602082019050919050565b60006123a982612293565b6123b3818561229e565b93506123be836122af565b8060005b838110156123ef5781516123d68882612379565b97506123e183612391565b9250506001810190506123c2565b5085935050505092915050565b60006020820190508181036000830152612416818461239e565b905092915050565b60008060006060848603121561243757612436611ff1565b5b60006124458682870161223e565b93505060206124568682870161223e565b925050604061246786828701612189565b9150509250925092565b6000806040838503121561248857612487611ff1565b5b600061249685828601612189565b92505060206124a785828601612189565b9150509250929050565b6000602082840312156124c7576124c6611ff1565b5b60006124d58482850161223e565b91505092915050565b6124e781612168565b82525050565b600060208201905061250260008301846124de565b92915050565b600080fd5b600080fd5b7f4e487b7100000000000000000000000000000000000000000000000000000000600052604160045260246000fd5b61254a826120fc565b810181811067ffffffffffffffff8211171561256957612568612512565b5b80604052505050565b600061257c611fe7565b90506125888282612541565b919050565b600067ffffffffffffffff8211156125a8576125a7612512565b5b6125b1826120fc565b9050602081019050919050565b82818337600083830152505050565b60006125e06125db8461258d565b612572565b9050828152602081018484840111156125fc576125fb61250d565b5b6126078482856125be565b509392505050565b600082601f83011261262457612623612508565b5b81356126348482602086016125cd565b91505092915050565b6000806040838503121561265457612653611ff1565b5b600083013567ffffffffffffffff81111561267257612671611ff6565b5b61267e8582860161260f565b925050602061268f85828601612189565b9150509250929050565b6126a281612080565b81146126ad57600080fd5b50565b6000813590506126bf81612699565b92915050565b600080604083850312156126dc576126db611ff1565b5b60006126ea8582860161223e565b92505060206126fb858286016126b0565b9150509250929050565b600067ffffffffffffffff8211156127205761271f612512565b5b612729826120fc565b9050602081019050919050565b600061274961274484612705565b612572565b9050828152602081018484840111156127655761276461250d565b5b6127708482856125be565b509392505050565b600082601f83011261278d5761278c612508565b5b813561279d848260208601612736565b91505092915050565b600080600080608085870312156127c0576127bf611ff1565b5b60006127ce8782880161223e565b94505060206127df8782880161223e565b93505060406127f087828801612189565b925050606085013567ffffffffffffffff81111561281157612810611ff6565b5b61281d87828801612778565b91505092959194509250565b600080604083850312156128405761283f611ff1565b5b600061284e8582860161223e565b925050602061285f8582860161223e565b9150509250929050565b7f4e487b7100000000000000000000000000000000000000000000000000000000600052602260045260246000fd5b600060028204905060018216806128b057607f821691505b6020821081036128c3576128c2612869565b5b50919050565b7f4552433732313a20617070726f76616c20746f2063757272656e74206f776e6560008201527f7200000000000000000000000000000000000000000000000000000000000000602082015250565b60006129256021836120c1565b9150612930826128c9565b604082019050919050565b6000602082019050818103600083015261295481612918565b9050919050565b7f4552433732313a20617070726f76652063616c6c6572206973206e6f7420746f60008201527f6b656e206f776e6572206f7220617070726f76656420666f7220616c6c000000602082015250565b60006129b7603d836120c1565b91506129c28261295b565b604082019050919050565b600060208201905081810360008301526129e6816129aa565b9050919050565b7f4e487b7100000000000000000000000000000000000000000000000000000000600052601160045260246000fd5b6000612a2782612168565b9150612a3283612168565b9250828203905081811115612a4a57612a496129ed565b5b92915050565b6000612a5b82612168565b9150612a6683612168565b9250828201905080821115612a7e57612a7d6129ed565b5b92915050565b7f4e487b7100000000000000000000000000000000000000000000000000000000600052603260045260246000fd5b6000612abe82612168565b91507fffffffffffffffffffffffffffffffffffffffffffffffffffffffffffffffff8203612af057612aef6129ed565b5b600182019050919050565b7f4552433732313a2063616c6c6572206973206e6f7420746f6b656e206f776e6560008201527f72206f7220617070726f76656400000000000000000000000000000000000000602082015250565b6000612b57602d836120c1565b9150612b6282612afb565b604082019050919050565b60006020820190508181036000830152612b8681612b4a565b9050919050565b7f5072696365206d7573742062652067726561746572207468616e203000000000600082015250565b6000612bc3601c836120c1565b9150612bce82612b8d565b602082019050919050565b60006020820190508181036000830152612bf281612bb6565b9050919050565b7f5072696365206d75737420657175616c206c697374696e672070726963650000600082015250565b6000612c2f601e836120c1565b9150612c3a82612bf9565b602082019050919050565b60006020820190508181036000830152612c5e81612c22565b9050919050565b6000608082019050612c7a60008301876121fd565b612c8760208301866121fd565b612c9460408301856124de565b612ca1606083018461208c565b95945050505050565b7f4552433732313a20696e76616c696420746f6b656e2049440000000000000000600082015250565b6000612ce06018836120c1565b9150612ceb82612caa565b602082019050919050565b60006020820190508181036000830152612d0f81612cd3565b9050919050565b7f4552433732313a2061646472657373207a65726f206973206e6f74206120766160008201527f6c6964206f776e65720000000000000000000000000000000000000000000000602082015250565b6000612d726029836120c1565b9150612d7d82612d16565b604082019050919050565b60006020820190508181036000830152612da181612d65565b9050919050565b600081905092915050565b6000612dbe826120b6565b612dc88185612da8565b9350612dd88185602086016120d2565b80840191505092915050565b6000612df08285612db3565b9150612dfc8284612db3565b91508190509392505050565b7f4552433732313a207472616e736665722066726f6d20696e636f72726563742060008201527f6f776e6572000000000000000000000000000000000000000000000000000000602082015250565b6000612e646025836120c1565b9150612e6f82612e08565b604082019050919050565b60006020820190508181036000830152612e9381612e57565b9050919050565b7f4552433732313a207472616e7366657220746f20746865207a65726f2061646460008201527f7265737300000000000000000000000000000000000000000000000000000000602082015250565b6000612ef66024836120c1565b9150612f0182612e9a565b604082019050919050565b60006020820190508181036000830152612f2581612ee9565b9050919050565b7f5265656e7472616e637947756172643a207265656e7472616e742063616c6c00600082015250565b6000612f62601f836120c1565b9150612f6d82612f2c565b602082019050919050565b60006020820190508181036000830152612f9181612f55565b9050919050565b7f4552433732313a206d696e7420746f20746865207a65726f2061646472657373600082015250565b6000612fce6020836120c1565b9150612fd982612f98565b602082019050919050565b60006020820190508181036000830152612ffd81612fc1565b9050919050565b7f4552433732313a20746f6b656e20616c7265616479206d696e74656400000000600082015250565b600061303a601c836120c1565b915061304582613004565b602082019050919050565b600060208201905081810360008301526130698161302d565b9050919050565b7f45524337323155524953746f726167653a2055524920736574206f66206e6f6e60008201527f6578697374656e7420746f6b656e000000000000000000000000000000000000602082015250565b60006130cc602e836120c1565b91506130d782613070565b604082019050919050565b600060208201905081810360008301526130fb816130bf565b9050919050565b60008190508160005260206000209050919050565b60006020601f8301049050919050565b600082821b905092915050565b6000600883026131647fffffffffffffffffffffffffffffffffffffffffffffffffffffffffffffffff82613127565b61316e8683613127565b95508019841693508086168417925050509392505050565b6000819050919050565b60006131ab6131a66131a184612168565b613186565b612168565b9050919050565b6000819050919050565b6131c583613190565b6131d96131d1826131b2565b848454613134565b825550505050565b600090565b6131ee6131e1565b6131f98184846131bc565b505050565b5b8181101561321d576132126000826131e6565b6001810190506131ff565b5050565b601f8211156132625761323381613102565b61323c84613117565b8101602085101561324b578190505b61325f61325785613117565b8301826131fe565b50505b505050565b600082821c905092915050565b600061328560001984600802613267565b1980831691505092915050565b600061329e8383613274565b9150826002028217905092915050565b6132b7826120b6565b67ffffffffffffffff8111156132d0576132cf612512565b5b6132da8254612898565b6132e5828285613221565b600060209050601f8311600181146133185760008415613306578287015190505b6133108582613292565b865550613378565b601f19841661332686613102565b60005b8281101561334e57848901518255600182019150602085019450602081019050613329565b8683101561336b5784890151613367601f891682613274565b8355505b6001600288020188555050505b505050505050565b7f4552433732313a20617070726f766520746f2063616c6c657200000000000000600082015250565b60006133b66019836120c1565b91506133c182613380565b602082019050919050565b600060208201905081810360008301526133e5816133a9565b9050919050565b7f4552433732313a207472616e7366657220746f206e6f6e20455243373231526560008201527f63656976657220696d706c656d656e7465720000000000000000000000000000602082015250565b60006134486032836120c1565b9150613453826133ec565b604082019050919050565b600060208201905081810360008301526134778161343b565b9050919050565b600081519050919050565b600082825260208201905092915050565b60006134a58261347e565b6134af8185613489565b93506134bf8185602086016120d2565b6134c8816120fc565b840191505092915050565b60006080820190506134e860008301876121fd565b6134f560208301866121fd565b61350260408301856124de565b8181036060830152613514818461349a565b905095945050505050565b60008151905061352e81612027565b92915050565b60006020828403121561354a57613549611ff1565b5b60006135588482850161351f565b91505092915050565b7f4e487b7100000000000000000000000000000000000000000000000000000000600052601260045260246000fdfea264697066735822122090c1de70b1b076825e86f9850f36beac2bab26f6255352607f74274df673f0d064736f6c63430008130033",
  "linkReferences": {},
  "deployedLinkReferences": {}
}