{
  "_format": "hh-sol-artifact-1",
  "contractName": "NFTMarketplace",
  "sourceName": "contracts/NFTMarketplace.sol",
  "abi": [
    {
      "inputs": [],
      "stateMutability": "nonpayable",
      "type": "constructor"
    },
    {
      "anonymous": false,
      "inputs": [
        {
          "indexed": true,
          "internalType": "address",
          "name": "owner",
          "type": "address"
        },
        {
          "indexed": true,
          "internalType": "address",
          "name": "approved",
          "type": "address"
        },
        {
          "indexed": true,
          "internalType": "uint256",
          "name": "tokenId",
          "type": "uint256"
        }
      ],
      "name": "Approval",
      "type": "event"
    },
    {
      "anonymous": false,
      "inputs": [
        {
          "indexed": true,
          "internalType": "address",
          "name": "owner",
          "type": "address"
        },
        {
          "indexed": true,
          "internalType": "address",
          "name": "operator",
          "type": "address"
        },
        {
          "indexed": false,
          "internalType": "bool",
          "name": "approved",
          "type": "bool"
        }
      ],
      "name": "ApprovalForAll",
      "type": "event"
    },
    {
      "anonymous": false,
      "inputs": [
        {
          "indexed": false,
          "internalType": "uint256",
          "name": "_fromTokenId",
          "type": "uint256"
        },
        {
          "indexed": false,
          "internalType": "uint256",
          "name": "_toTokenId",
          "type": "uint256"
        }
      ],
      "name": "BatchMetadataUpdate",
      "type": "event"
    },
    {
      "anonymous": false,
      "inputs": [
        {
          "indexed": true,
          "internalType": "uint256",
          "name": "tokenId",
          "type": "uint256"
        },
        {
          "indexed": false,
          "internalType": "address",
          "name": "seller",
          "type": "address"
        },
        {
          "indexed": false,
          "internalType": "address",
          "name": "owner",
          "type": "address"
        },
        {
          "indexed": false,
          "internalType": "uint256",
          "name": "price",
          "type": "uint256"
        },
        {
          "indexed": false,
          "internalType": "bool",
          "name": "sold",
          "type": "bool"
        }
      ],
      "name": "MarketItemCreated",
      "type": "event"
    },
    {
      "anonymous": false,
      "inputs": [
        {
          "indexed": true,
          "internalType": "uint256",
          "name": "tokenId",
          "type": "uint256"
        },
        {
          "indexed": false,
          "internalType": "address",
          "name": "seller",
          "type": "address"
        },
        {
          "indexed": false,
          "internalType": "address",
          "name": "buyer",
          "type": "address"
        },
        {
          "indexed": false,
          "internalType": "uint256",
          "name": "price",
          "type": "uint256"
        }
      ],
      "name": "MarketItemSold",
      "type": "event"
    },
    {
      "anonymous": false,
      "inputs": [
        {
          "indexed": false,
          "internalType": "uint256",
          "name": "_tokenId",
          "type": "uint256"
        }
      ],
      "name": "MetadataUpdate",
      "type": "event"
    },
    {
      "anonymous": false,
      "inputs": [
        {
          "indexed": true,
          "internalType": "address",
          "name": "from",
          "type": "address"
        },
        {
          "indexed": true,
          "internalType": "address",
          "name": "to",
          "type": "address"
        },
        {
          "indexed": true,
          "internalType": "uint256",
          "name": "tokenId",
          "type": "uint256"
        }
      ],
      "name": "Transfer",
      "type": "event"
    },
    {
      "inputs": [
        {
          "internalType": "address",
          "name": "to",
          "type": "address"
        },
        {
          "internalType": "uint256",
          "name": "tokenId",
          "type": "uint256"
        }
      ],
      "name": "approve",
      "outputs": [],
      "stateMutability": "nonpayable",
      "type": "function"
    },
    {
      "inputs": [
        {
          "internalType": "address",
          "name": "owner",
          "type": "address"
        }
      ],
      "name": "balanceOf",
      "outputs": [
        {
          "internalType": "uint256",
          "name": "",
          "type": "uint256"
        }
      ],
      "stateMutability": "view",
      "type": "function"
    },
    {
      "inputs": [
        {
          "internalType": "uint256",
          "name": "tokenId",
          "type": "uint256"
        },
        {
          "internalType": "uint256",
          "name": "price",
          "type": "uint256"
        }
      ],
      "name": "createMarketItem",
      "outputs": [],
      "stateMutability": "payable",
      "type": "function"
    },
    {
      "inputs": [
        {
          "internalType": "uint256",
          "name": "tokenId",
          "type": "uint256"
        }
      ],
      "name": "createMarketSale",
      "outputs": [],
      "stateMutability": "payable",
      "type": "function"
    },
    {
      "inputs": [
        {
          "internalType": "string",
          "name": "tokenURI",
          "type": "string"
        },
        {
          "internalType": "uint256",
          "name": "price",
          "type": "uint256"
        }
      ],
      "name": "createToken",
      "outputs": [
        {
          "internalType": "uint256",
          "name": "",
          "type": "uint256"
        }
      ],
      "stateMutability": "payable",
      "type": "function"
    },
    {
      "inputs": [],
      "name": "fetchItemsListed",
      "outputs": [
        {
          "components": [
            {
              "internalType": "uint256",
              "name": "tokenId",
              "type": "uint256"
            },
            {
              "internalType": "address payable",
              "name": "seller",
              "type": "address"
            },
            {
              "internalType": "address payable",
              "name": "owner",
              "type": "address"
            },
            {
              "internalType": "uint256",
              "name": "price",
              "type": "uint256"
            },
            {
              "internalType": "bool",
              "name": "sold",
              "type": "bool"
            },
            {
              "internalType": "bool",
              "name": "listed",
              "type": "bool"
            }
          ],
          "internalType": "struct NFTMarketplace.MarketItem[]",
          "name": "",
          "type": "tuple[]"
        }
      ],
      "stateMutability": "view",
      "type": "function"
    },
    {
      "inputs": [],
      "name": "fetchMarketItems",
      "outputs": [
        {
          "components": [
            {
              "internalType": "uint256",
              "name": "tokenId",
              "type": "uint256"
            },
            {
              "internalType": "address payable",
              "name": "seller",
              "type": "address"
            },
            {
              "internalType": "address payable",
              "name": "owner",
              "type": "address"
            },
            {
              "internalType": "uint256",
              "name": "price",
              "type": "uint256"
            },
            {
              "internalType": "bool",
              "name": "sold",
              "type": "bool"
            },
            {
              "internalType": "bool",
              "name": "listed",
              "type": "bool"
            }
          ],
          "internalType": "struct NFTMarketplace.MarketItem[]",
          "name": "",
          "type": "tuple[]"
        }
      ],
      "stateMutability": "view",
      "type": "function"
    },
    {
      "inputs": [],
      "name": "fetchMyNFTs",
      "outputs": [
        {
          "components": [
            {
              "internalType": "uint256",
              "name": "tokenId",
              "type": "uint256"
            },
            {
              "internalType": "address payable",
              "name": "seller",
              "type": "address"
            },
            {
              "internalType": "address payable",
              "name": "owner",
              "type": "address"
            },
            {
              "internalType": "uint256",
              "name": "price",
              "type": "uint256"
            },
            {
              "internalType": "bool",
              "name": "sold",
              "type": "bool"
            },
            {
              "internalType": "bool",
              "name": "listed",
              "type": "bool"
            }
          ],
          "internalType": "struct NFTMarketplace.MarketItem[]",
          "name": "",
          "type": "tuple[]"
        }
      ],
      "stateMutability": "view",
      "type": "function"
    },
    {
      "inputs": [
        {
          "internalType": "uint256",
          "name": "tokenId",
          "type": "uint256"
        }
      ],
      "name": "getApproved",
      "outputs": [
        {
          "internalType": "address",
          "name": "",
          "type": "address"
        }
      ],
      "stateMutability": "view",
      "type": "function"
    },
    {
      "inputs": [],
      "name": "getListingPrice",
      "outputs": [
        {
          "internalType": "uint256",
          "name": "",
          "type": "uint256"
        }
      ],
      "stateMutability": "view",
      "type": "function"
    },
    {
      "inputs": [
        {
          "internalType": "uint256",
          "name": "tokenId",
          "type": "uint256"
        }
      ],
      "name": "getMarketItem",
      "outputs": [
        {
          "components": [
            {
              "internalType": "uint256",
              "name": "tokenId",
              "type": "uint256"
            },
            {
              "internalType": "address payable",
              "name": "seller",
              "type": "address"
            },
            {
              "internalType": "address payable",
              "name": "owner",
              "type": "address"
            },
            {
              "internalType": "uint256",
              "name": "price",
              "type": "uint256"
            },
            {
              "internalType": "bool",
              "name": "sold",
              "type": "bool"
            },
            {
              "internalType": "bool",
              "name": "listed",
              "type": "bool"
            }
          ],
          "internalType": "struct NFTMarketplace.MarketItem",
          "name": "",
          "type": "tuple"
        }
      ],
      "stateMutability": "view",
      "type": "function"
    },
    {
      "inputs": [
        {
          "internalType": "uint256",
          "name": "tokenId",
          "type": "uint256"
        }
      ],
      "name": "getTokenCreator",
      "outputs": [
        {
          "internalType": "address",
          "name": "",
          "type": "address"
        }
      ],
      "stateMutability": "view",
      "type": "function"
    },
    {
      "inputs": [
        {
          "internalType": "address",
          "name": "owner",
          "type": "address"
        },
        {
          "internalType": "address",
          "name": "operator",
          "type": "address"
        }
      ],
      "name": "isApprovedForAll",
      "outputs": [
        {
          "internalType": "bool",
          "name": "",
          "type": "bool"
        }
      ],
      "stateMutability": "view",
      "type": "function"
    },
    {
      "inputs": [],
      "name": "name",
      "outputs": [
        {
          "internalType": "string",
          "name": "",
          "type": "string"
        }
      ],
      "stateMutability": "view",
      "type": "function"
    },
    {
      "inputs": [
        {
          "internalType": "uint256",
          "name": "tokenId",
          "type": "uint256"
        }
      ],
      "name": "ownerOf",
      "outputs": [
        {
          "internalType": "address",
          "name": "",
          "type": "address"
        }
      ],
      "stateMutability": "view",
      "type": "function"
    },
    {
      "inputs": [
        {
          "internalType": "address",
          "name": "from",
          "type": "address"
        },
        {
          "internalType": "address",
          "name": "to",
          "type": "address"
        },
        {
          "internalType": "uint256",
          "name": "tokenId",
          "type": "uint256"
        }
      ],
      "name": "safeTransferFrom",
      "outputs": [],
      "stateMutability": "nonpayable",
      "type": "function"
    },
    {
      "inputs": [
        {
          "internalType": "address",
          "name": "from",
          "type": "address"
        },
        {
          "internalType": "address",
          "name": "to",
          "type": "address"
        },
        {
          "internalType": "uint256",
          "name": "tokenId",
          "type": "uint256"
        },
        {
          "internalType": "bytes",
          "name": "data",
          "type": "bytes"
        }
      ],
      "name": "safeTransferFrom",
      "outputs": [],
      "stateMutability": "nonpayable",
      "type": "function"
    },
    {
      "inputs": [
        {
          "internalType": "address",
          "name": "operator",
          "type": "address"
        },
        {
          "internalType": "bool",
          "name": "approved",
          "type": "bool"
        }
      ],
      "name": "setApprovalForAll",
      "outputs": [],
      "stateMutability": "nonpayable",
      "type": "function"
    },
    {
      "inputs": [
        {
          "internalType": "bytes4",
          "name": "interfaceId",
          "type": "bytes4"
        }
      ],
      "name": "supportsInterface",
      "outputs": [
        {
          "internalType": "bool",
          "name": "",
          "type": "bool"
        }
      ],
      "stateMutability": "view",
      "type": "function"
    },
    {
      "inputs": [],
      "name": "symbol",
      "outputs": [
        {
          "internalType": "string",
          "name": "",
          "type": "string"
        }
      ],
      "stateMutability": "view",
      "type": "function"
    },
    {
      "inputs": [
        {
          "internalType": "uint256",
          "name": "tokenId",
          "type": "uint256"
        }
      ],
      "name": "tokenURI",
      "outputs": [
        {
          "internalType": "string",
          "name": "",
          "type": "string"
        }
      ],
      "stateMutability": "view",
      "type": "function"
    },
    {
      "inputs": [
        {
          "internalType": "address",
          "name": "from",
          "type": "address"
        },
        {
          "internalType": "address",
          "name": "to",
          "type": "address"
        },
        {
          "internalType": "uint256",
          "name": "tokenId",
          "type": "uint256"
        }
      ],
      "name": "transferFrom",
      "outputs": [],
      "stateMutability": "nonpayable",
      "type": "function"
    },
    {
      "inputs": [
        {
          "internalType": "uint256",
          "name": "_listingPrice",
          "type": "uint256"
        }
      ],
      "name": "updateListingPrice",
      "outputs": [],
      "stateMutability": "nonpayable",
      "type": "function"
    },
    {
      "inputs": [
        {
          "internalType": "uint256",
          "name": "tokenId",
          "type": "uint256"
        }
      ],
      "name": "withdrawListingItem",
      "outputs": [],
      "stateMutability": "nonpayable",
      "type": "function"
    }
  ],
  "bytecode": "0x60806040526658d15e17628000600a553480156200001c57600080fd5b506040518060400160405280600f81526020017f4e4654204d61726b6574706c61636500000000000000000000000000000000008152506040518060400160405280600481526020017f4e46544d0000000000000000000000000000000000000000000000000000000081525081600090816200009a919062000378565b508060019081620000ac919062000378565b505050600160078190555033600b60006101000a81548173ffffffffffffffffffffffffffffffffffffffff021916908373ffffffffffffffffffffffffffffffffffffffff1602179055506200045f565b600081519050919050565b7f4e487b7100000000000000000000000000000000000000000000000000000000600052604160045260246000fd5b7f4e487b7100000000000000000000000000000000000000000000000000000000600052602260045260246000fd5b600060028204905060018216806200018057607f821691505b60208210810362000196576200019562000138565b5b50919050565b60008190508160005260206000209050919050565b60006020601f8301049050919050565b600082821b905092915050565b600060088302620002007fffffffffffffffffffffffffffffffffffffffffffffffffffffffffffffffff82620001c1565b6200020c8683620001c1565b95508019841693508086168417925050509392505050565b6000819050919050565b6000819050919050565b600062000259620002536200024d8462000224565b6200022e565b62000224565b9050919050565b6000819050919050565b620002758362000238565b6200028d620002848262000260565b848454620001ce565b825550505050565b600090565b620002a462000295565b620002b18184846200026a565b505050565b5b81811015620002d957620002cd6000826200029a565b600181019050620002b7565b5050565b601f8211156200032857620002f2816200019c565b620002fd84620001b1565b810160208510156200030d578190505b620003256200031c85620001b1565b830182620002b6565b50505b505050565b600082821c905092915050565b60006200034d600019846008026200032d565b1980831691505092915050565b60006200036883836200033a565b9150826002028217905092915050565b6200038382620000fe565b67ffffffffffffffff8111156200039f576200039e62000109565b5b620003ab825462000167565b620003b8828285620002dd565b600060209050601f831160018114620003f05760008415620003db578287015190505b620003e785826200035a565b86555062000457565b601f19841662000400866200019c565b60005b828110156200042a5784890151825560018201915060208501945060208101905062000403565b868310156200044a578489015162000446601f8916826200033a565b8355505b6001600288020188555050505b505050505050565b614b59806200046f6000396000f3fe60806040526004361061014b5760003560e01c80636352211e116100b6578063ae677aa31161006f578063ae677aa31461049c578063b88d4fde146104c5578063be9af536146104ee578063c7be7a491461050a578063c87b56dd14610547578063e985e9c5146105845761014b565b80636352211e1461036157806370a082311461039e57806372b3b620146103db578063934689a91461040b57806395d89b4114610448578063a22cb465146104735761014b565b8063202e374011610108578063202e37401461027457806323b872dd1461029f5780633279d4b0146102c8578063361c1995146102f157806342842e0e1461030d57806345f8fa80146103365761014b565b806301ffc9a71461015057806306fdde031461018d578063081812fc146101b8578063095ea7b3146101f55780630f08efe01461021e57806312e8558514610249575b600080fd5b34801561015c57600080fd5b50610177600480360381019061017291906131d9565b6105c1565b6040516101849190613221565b60405180910390f35b34801561019957600080fd5b506101a2610622565b6040516101af91906132cc565b60405180910390f35b3480156101c457600080fd5b506101df60048036038101906101da9190613324565b6106b4565b6040516101ec9190613392565b60405180910390f35b34801561020157600080fd5b5061021c600480360381019061021791906133d9565b6106fa565b005b34801561022a57600080fd5b50610233610811565b6040516102409190613582565b60405180910390f35b34801561025557600080fd5b5061025e610a8d565b60405161026b91906135b3565b60405180910390f35b34801561028057600080fd5b50610289610a97565b6040516102969190613582565b60405180910390f35b3480156102ab57600080fd5b506102c660048036038101906102c191906135ce565b610d9e565b005b3480156102d457600080fd5b506102ef60048036038101906102ea9190613324565b610dfe565b005b61030b60048036038101906103069190613621565b611061565b005b34801561031957600080fd5b50610334600480360381019061032f91906135ce565b611313565b005b34801561034257600080fd5b5061034b611333565b6040516103589190613582565b60405180910390f35b34801561036d57600080fd5b5061038860048036038101906103839190613324565b61163a565b6040516103959190613392565b60405180910390f35b3480156103aa57600080fd5b506103c560048036038101906103c09190613661565b6116c0565b6040516103d291906135b3565b60405180910390f35b6103f560048036038101906103f091906137c3565b611777565b60405161040291906135b3565b60405180910390f35b34801561041757600080fd5b50610432600480360381019061042d9190613324565b611973565b60405161043f9190613392565b60405180910390f35b34801561045457600080fd5b5061045d6119b0565b60405161046a91906132cc565b60405180910390f35b34801561047f57600080fd5b5061049a6004803603810190610495919061384b565b611a42565b005b3480156104a857600080fd5b506104c360048036038101906104be9190613324565b611a58565b005b3480156104d157600080fd5b506104ec60048036038101906104e7919061392c565b611af2565b005b61050860048036038101906105039190613324565b611b54565b005b34801561051657600080fd5b50610531600480360381019061052c9190613324565b611e7e565b60405161053e9190613a2a565b60405180910390f35b34801561055357600080fd5b5061056e60048036038101906105699190613324565b611fa1565b60405161057b91906132cc565b60405180910390f35b34801561059057600080fd5b506105ab60048036038101906105a69190613a45565b6120b3565b6040516105b89190613221565b60405180910390f35b6000634906490660e01b7bffffffffffffffffffffffffffffffffffffffffffffffffffffffff1916827bffffffffffffffffffffffffffffffffffffffffffffffffffffffff1916148061061b575061061a82612147565b5b9050919050565b60606000805461063190613ab4565b80601f016020809104026020016040519081016040528092919081815260200182805461065d90613ab4565b80156106aa5780601f1061067f576101008083540402835291602001916106aa565b820191906000526020600020905b81548152906001019060200180831161068d57829003601f168201915b5050505050905090565b60006106bf82612229565b6004600083815260200190815260200160002060009054906101000a900473ffffffffffffffffffffffffffffffffffffffff169050919050565b60006107058261163a565b90508073ffffffffffffffffffffffffffffffffffffffff168373ffffffffffffffffffffffffffffffffffffffff1603610775576040517f08c379a000000000000000000000000000000000000000000000000000000000815260040161076c90613b57565b60405180910390fd5b8073ffffffffffffffffffffffffffffffffffffffff16610794612274565b73ffffffffffffffffffffffffffffffffffffffff1614806107c357506107c2816107bd612274565b6120b3565b5b610802576040517f08c379a00000000000000000000000000000000000000000000000000000000081526004016107f990613be9565b60405180910390fd5b61080c838361227c565b505050565b6060600061081f6008612335565b9050600061082d6009612335565b6108376008612335565b6108419190613c38565b90506000808267ffffffffffffffff8111156108605761085f613698565b5b60405190808252806020026020018201604052801561089957816020015b610886613107565b81526020019060019003908161087e5790505b50905060005b84811015610a8257600c60006001836108b89190613c6c565b815260200190815260200160002060040160019054906101000a900460ff1680156109105750600c60006001836108ef9190613c6c565b815260200190815260200160002060040160009054906101000a900460ff16155b15610a6f5760006001826109249190613c6c565b90506000600c60008381526020019081526020016000209050806040518060c0016040529081600082015481526020016001820160009054906101000a900473ffffffffffffffffffffffffffffffffffffffff1673ffffffffffffffffffffffffffffffffffffffff1673ffffffffffffffffffffffffffffffffffffffff1681526020016002820160009054906101000a900473ffffffffffffffffffffffffffffffffffffffff1673ffffffffffffffffffffffffffffffffffffffff1673ffffffffffffffffffffffffffffffffffffffff168152602001600382015481526020016004820160009054906101000a900460ff161515151581526020016004820160019054906101000a900460ff161515151581525050848681518110610a5257610a51613ca0565b5b6020026020010181905250600185610a6a9190613c6c565b945050505b8080610a7a90613ccf565b91505061089f565b508094505050505090565b6000600a54905090565b60606000610aa56008612335565b905060008060005b83811015610b4d573373ffffffffffffffffffffffffffffffffffffffff16600c6000600184610add9190613c6c565b815260200190815260200160002060020160009054906101000a900473ffffffffffffffffffffffffffffffffffffffff1673ffffffffffffffffffffffffffffffffffffffff1603610b3a57600183610b379190613c6c565b92505b8080610b4590613ccf565b915050610aad565b5060008267ffffffffffffffff811115610b6a57610b69613698565b5b604051908082528060200260200182016040528015610ba357816020015b610b90613107565b815260200190600190039081610b885790505b50905060005b84811015610d93573373ffffffffffffffffffffffffffffffffffffffff16600c6000600184610bd99190613c6c565b815260200190815260200160002060020160009054906101000a900473ffffffffffffffffffffffffffffffffffffffff1673ffffffffffffffffffffffffffffffffffffffff1603610d80576000600182610c359190613c6c565b90506000600c60008381526020019081526020016000209050806040518060c0016040529081600082015481526020016001820160009054906101000a900473ffffffffffffffffffffffffffffffffffffffff1673ffffffffffffffffffffffffffffffffffffffff1673ffffffffffffffffffffffffffffffffffffffff1681526020016002820160009054906101000a900473ffffffffffffffffffffffffffffffffffffffff1673ffffffffffffffffffffffffffffffffffffffff1673ffffffffffffffffffffffffffffffffffffffff168152602001600382015481526020016004820160009054906101000a900460ff161515151581526020016004820160019054906101000a900460ff161515151581525050848681518110610d6357610d62613ca0565b5b6020026020010181905250600185610d7b9190613c6c565b945050505b8080610d8b90613ccf565b915050610ba9565b508094505050505090565b610daf610da9612274565b82612343565b610dee576040517f08c379a0000000000000000000000000000000000000000000000000000000008152600401610de590613d89565b60405180910390fd5b610df98383836123d8565b505050565b610e066126d1565b3373ffffffffffffffffffffffffffffffffffffffff16600c600083815260200190815260200160002060010160009054906101000a900473ffffffffffffffffffffffffffffffffffffffff1673ffffffffffffffffffffffffffffffffffffffff1614610eaa576040517f08c379a0000000000000000000000000000000000000000000000000000000008152600401610ea190613df5565b60405180910390fd5b600c600082815260200190815260200160002060040160019054906101000a900460ff16610f0d576040517f08c379a0000000000000000000000000000000000000000000000000000000008152600401610f0490613e61565b60405180910390fd5b600c600082815260200190815260200160002060040160009054906101000a900460ff1615610f71576040517f08c379a0000000000000000000000000000000000000000000000000000000008152600401610f6890613ecd565b60405180910390fd5b6000600c600083815260200190815260200160002060040160016101000a81548160ff02191690831515021790555033600c600083815260200190815260200160002060020160006101000a81548173ffffffffffffffffffffffffffffffffffffffff021916908373ffffffffffffffffffffffffffffffffffffffff1602179055506000600c600083815260200190815260200160002060010160006101000a81548173ffffffffffffffffffffffffffffffffffffffff021916908373ffffffffffffffffffffffffffffffffffffffff1602179055506110563033836123d8565b61105e612720565b50565b6110696126d1565b600081116110ac576040517f08c379a00000000000000000000000000000000000000000000000000000000081526004016110a390613f39565b60405180910390fd5b600a5434146110f0576040517f08c379a00000000000000000000000000000000000000000000000000000000081526004016110e790613fcb565b60405180910390fd5b3373ffffffffffffffffffffffffffffffffffffffff166111108361163a565b73ffffffffffffffffffffffffffffffffffffffff1614611166576040517f08c379a000000000000000000000000000000000000000000000000000000000815260040161115d90614037565b60405180910390fd5b6040518060c001604052808381526020013373ffffffffffffffffffffffffffffffffffffffff1681526020013073ffffffffffffffffffffffffffffffffffffffff16815260200182815260200160001515815260200160011515815250600c60008481526020019081526020016000206000820151816000015560208201518160010160006101000a81548173ffffffffffffffffffffffffffffffffffffffff021916908373ffffffffffffffffffffffffffffffffffffffff16021790555060408201518160020160006101000a81548173ffffffffffffffffffffffffffffffffffffffff021916908373ffffffffffffffffffffffffffffffffffffffff1602179055506060820151816003015560808201518160040160006101000a81548160ff02191690831515021790555060a08201518160040160016101000a81548160ff0219169083151502179055509050506112c83330846123d8565b817fb640004f1d14576d0c209e240cad0410e0d8c0c33a09375861fbadae2588a98d33308460006040516112ff9493929190614057565b60405180910390a261130f612720565b5050565b61132e83838360405180602001604052806000815250611af2565b505050565b606060006113416008612335565b905060008060005b838110156113e9573373ffffffffffffffffffffffffffffffffffffffff16600c60006001846113799190613c6c565b815260200190815260200160002060010160009054906101000a900473ffffffffffffffffffffffffffffffffffffffff1673ffffffffffffffffffffffffffffffffffffffff16036113d6576001836113d39190613c6c565b92505b80806113e190613ccf565b915050611349565b5060008267ffffffffffffffff81111561140657611405613698565b5b60405190808252806020026020018201604052801561143f57816020015b61142c613107565b8152602001906001900390816114245790505b50905060005b8481101561162f573373ffffffffffffffffffffffffffffffffffffffff16600c60006001846114759190613c6c565b815260200190815260200160002060010160009054906101000a900473ffffffffffffffffffffffffffffffffffffffff1673ffffffffffffffffffffffffffffffffffffffff160361161c5760006001826114d19190613c6c565b90506000600c60008381526020019081526020016000209050806040518060c0016040529081600082015481526020016001820160009054906101000a900473ffffffffffffffffffffffffffffffffffffffff1673ffffffffffffffffffffffffffffffffffffffff1673ffffffffffffffffffffffffffffffffffffffff1681526020016002820160009054906101000a900473ffffffffffffffffffffffffffffffffffffffff1673ffffffffffffffffffffffffffffffffffffffff1673ffffffffffffffffffffffffffffffffffffffff168152602001600382015481526020016004820160009054906101000a900460ff161515151581526020016004820160019054906101000a900460ff1615151515815250508486815181106115ff576115fe613ca0565b5b60200260200101819052506001856116179190613c6c565b945050505b808061162790613ccf565b915050611445565b508094505050505090565b6000806116468361272a565b9050600073ffffffffffffffffffffffffffffffffffffffff168173ffffffffffffffffffffffffffffffffffffffff16036116b7576040517f08c379a00000000000000000000000000000000000000000000000000000000081526004016116ae906140e8565b60405180910390fd5b80915050919050565b60008073ffffffffffffffffffffffffffffffffffffffff168273ffffffffffffffffffffffffffffffffffffffff1603611730576040517f08c379a00000000000000000000000000000000000000000000000000000000081526004016117279061417a565b60405180910390fd5b600360008373ffffffffffffffffffffffffffffffffffffffff1673ffffffffffffffffffffffffffffffffffffffff168152602001908152602001600020549050919050565b60006117836008612767565b600061178f6008612335565b905061179b338261277d565b6117a5818561299a565b33600d600083815260200190815260200160002060006101000a81548173ffffffffffffffffffffffffffffffffffffffff021916908373ffffffffffffffffffffffffffffffffffffffff160217905550600083111561180f5761180a8184611061565b611969565b6040518060c00160405280828152602001600073ffffffffffffffffffffffffffffffffffffffff1681526020013373ffffffffffffffffffffffffffffffffffffffff1681526020016000815260200160001515815260200160001515815250600c60008381526020019081526020016000206000820151816000015560208201518160010160006101000a81548173ffffffffffffffffffffffffffffffffffffffff021916908373ffffffffffffffffffffffffffffffffffffffff16021790555060408201518160020160006101000a81548173ffffffffffffffffffffffffffffffffffffffff021916908373ffffffffffffffffffffffffffffffffffffffff1602179055506060820151816003015560808201518160040160006101000a81548160ff02191690831515021790555060a08201518160040160016101000a81548160ff0219169083151502179055509050505b8091505092915050565b6000600d600083815260200190815260200160002060009054906101000a900473ffffffffffffffffffffffffffffffffffffffff169050919050565b6060600180546119bf90613ab4565b80601f01602080910402602001604051908101604052809291908181526020018280546119eb90613ab4565b8015611a385780601f10611a0d57610100808354040283529160200191611a38565b820191906000526020600020905b815481529060010190602001808311611a1b57829003601f168201915b5050505050905090565b611a54611a4d612274565b8383612a3e565b5050565b600b60009054906101000a900473ffffffffffffffffffffffffffffffffffffffff1673ffffffffffffffffffffffffffffffffffffffff163373ffffffffffffffffffffffffffffffffffffffff1614611ae8576040517f08c379a0000000000000000000000000000000000000000000000000000000008152600401611adf9061420c565b60405180910390fd5b80600a8190555050565b611b03611afd612274565b83612343565b611b42576040517f08c379a0000000000000000000000000000000000000000000000000000000008152600401611b3990613d89565b60405180910390fd5b611b4e84848484612baa565b50505050565b611b5c6126d1565b6000600c60008381526020019081526020016000206003015490506000600c600084815260200190815260200160002060010160009054906101000a900473ffffffffffffffffffffffffffffffffffffffff169050813414611bf4576040517f08c379a0000000000000000000000000000000000000000000000000000000008152600401611beb90614278565b60405180910390fd5b600c600084815260200190815260200160002060040160019054906101000a900460ff16611c57576040517f08c379a0000000000000000000000000000000000000000000000000000000008152600401611c4e906142e4565b60405180910390fd5b600c600084815260200190815260200160002060040160009054906101000a900460ff1615611cbb576040517f08c379a0000000000000000000000000000000000000000000000000000000008152600401611cb290613ecd565b60405180910390fd5b33600c600085815260200190815260200160002060020160006101000a81548173ffffffffffffffffffffffffffffffffffffffff021916908373ffffffffffffffffffffffffffffffffffffffff1602179055506001600c600085815260200190815260200160002060040160006101000a81548160ff0219169083151502179055506000600c600085815260200190815260200160002060040160016101000a81548160ff021916908315150217905550611d786009612767565b611d833033856123d8565b600b60009054906101000a900473ffffffffffffffffffffffffffffffffffffffff1673ffffffffffffffffffffffffffffffffffffffff166108fc600a549081150290604051600060405180830381858888f19350505050158015611ded573d6000803e3d6000fd5b508073ffffffffffffffffffffffffffffffffffffffff166108fc349081150290604051600060405180830381858888f19350505050158015611e34573d6000803e3d6000fd5b50827f150ffca547cf855e7fcf5daa82e41c6523b5fb2c8b1309bbb6cf2f87c6ae5a31823385604051611e6993929190614304565b60405180910390a25050611e7b612720565b50565b611e86613107565b600c60008381526020019081526020016000206040518060c0016040529081600082015481526020016001820160009054906101000a900473ffffffffffffffffffffffffffffffffffffffff1673ffffffffffffffffffffffffffffffffffffffff1673ffffffffffffffffffffffffffffffffffffffff1681526020016002820160009054906101000a900473ffffffffffffffffffffffffffffffffffffffff1673ffffffffffffffffffffffffffffffffffffffff1673ffffffffffffffffffffffffffffffffffffffff168152602001600382015481526020016004820160009054906101000a900460ff161515151581526020016004820160019054906101000a900460ff1615151515815250509050919050565b6060611fac82612229565b6000600660008481526020019081526020016000208054611fcc90613ab4565b80601f0160208091040260200160405190810160405280929190818152602001828054611ff890613ab4565b80156120455780601f1061201a57610100808354040283529160200191612045565b820191906000526020600020905b81548152906001019060200180831161202857829003601f168201915b505050505090506000612056612c06565b9050600081510361206b5781925050506120ae565b6000825111156120a0578082604051602001612088929190614377565b604051602081830303815290604052925050506120ae565b6120a984612c1d565b925050505b919050565b6000600560008473ffffffffffffffffffffffffffffffffffffffff1673ffffffffffffffffffffffffffffffffffffffff16815260200190815260200160002060008373ffffffffffffffffffffffffffffffffffffffff1673ffffffffffffffffffffffffffffffffffffffff16815260200190815260200160002060009054906101000a900460ff16905092915050565b60007f80ac58cd000000000000000000000000000000000000000000000000000000007bffffffffffffffffffffffffffffffffffffffffffffffffffffffff1916827bffffffffffffffffffffffffffffffffffffffffffffffffffffffff1916148061221257507f5b5e139f000000000000000000000000000000000000000000000000000000007bffffffffffffffffffffffffffffffffffffffffffffffffffffffff1916827bffffffffffffffffffffffffffffffffffffffffffffffffffffffff1916145b80612222575061222182612c85565b5b9050919050565b61223281612cef565b612271576040517f08c379a0000000000000000000000000000000000000000000000000000000008152600401612268906140e8565b60405180910390fd5b50565b600033905090565b816004600083815260200190815260200160002060006101000a81548173ffffffffffffffffffffffffffffffffffffffff021916908373ffffffffffffffffffffffffffffffffffffffff160217905550808273ffffffffffffffffffffffffffffffffffffffff166122ef8361163a565b73ffffffffffffffffffffffffffffffffffffffff167f8c5be1e5ebec7d5bd14f71427d1e84f3dd0314c0f7b2291e5b200ac8c7c3b92560405160405180910390a45050565b600081600001549050919050565b60008061234f8361163a565b90508073ffffffffffffffffffffffffffffffffffffffff168473ffffffffffffffffffffffffffffffffffffffff161480612391575061239081856120b3565b5b806123cf57508373ffffffffffffffffffffffffffffffffffffffff166123b7846106b4565b73ffffffffffffffffffffffffffffffffffffffff16145b91505092915050565b8273ffffffffffffffffffffffffffffffffffffffff166123f88261163a565b73ffffffffffffffffffffffffffffffffffffffff161461244e576040517f08c379a00000000000000000000000000000000000000000000000000000000081526004016124459061440d565b60405180910390fd5b600073ffffffffffffffffffffffffffffffffffffffff168273ffffffffffffffffffffffffffffffffffffffff16036124bd576040517f08c379a00000000000000000000000000000000000000000000000000000000081526004016124b49061449f565b60405180910390fd5b6124ca8383836001612d30565b8273ffffffffffffffffffffffffffffffffffffffff166124ea8261163a565b73ffffffffffffffffffffffffffffffffffffffff1614612540576040517f08c379a00000000000000000000000000000000000000000000000000000000081526004016125379061440d565b60405180910390fd5b6004600082815260200190815260200160002060006101000a81549073ffffffffffffffffffffffffffffffffffffffff02191690556001600360008573ffffffffffffffffffffffffffffffffffffffff1673ffffffffffffffffffffffffffffffffffffffff168152602001908152602001600020600082825403925050819055506001600360008473ffffffffffffffffffffffffffffffffffffffff1673ffffffffffffffffffffffffffffffffffffffff16815260200190815260200160002060008282540192505081905550816002600083815260200190815260200160002060006101000a81548173ffffffffffffffffffffffffffffffffffffffff021916908373ffffffffffffffffffffffffffffffffffffffff160217905550808273ffffffffffffffffffffffffffffffffffffffff168473ffffffffffffffffffffffffffffffffffffffff167fddf252ad1be2c89b69c2b068fc378daa952ba7f163c4a11628f55a4df523b3ef60405160405180910390a46126cc8383836001612d36565b505050565b600260075403612716576040517f08c379a000000000000000000000000000000000000000000000000000000000815260040161270d9061450b565b60405180910390fd5b6002600781905550565b6001600781905550565b60006002600083815260200190815260200160002060009054906101000a900473ffffffffffffffffffffffffffffffffffffffff169050919050565b6001816000016000828254019250508190555050565b600073ffffffffffffffffffffffffffffffffffffffff168273ffffffffffffffffffffffffffffffffffffffff16036127ec576040517f08c379a00000000000000000000000000000000000000000000000000000000081526004016127e390614577565b60405180910390fd5b6127f581612cef565b15612835576040517f08c379a000000000000000000000000000000000000000000000000000000000815260040161282c906145e3565b60405180910390fd5b612843600083836001612d30565b61284c81612cef565b1561288c576040517f08c379a0000000000000000000000000000000000000000000000000000000008152600401612883906145e3565b60405180910390fd5b6001600360008473ffffffffffffffffffffffffffffffffffffffff1673ffffffffffffffffffffffffffffffffffffffff16815260200190815260200160002060008282540192505081905550816002600083815260200190815260200160002060006101000a81548173ffffffffffffffffffffffffffffffffffffffff021916908373ffffffffffffffffffffffffffffffffffffffff160217905550808273ffffffffffffffffffffffffffffffffffffffff16600073ffffffffffffffffffffffffffffffffffffffff167fddf252ad1be2c89b69c2b068fc378daa952ba7f163c4a11628f55a4df523b3ef60405160405180910390a4612996600083836001612d36565b5050565b6129a382612cef565b6129e2576040517f08c379a00000000000000000000000000000000000000000000000000000000081526004016129d990614675565b60405180910390fd5b80600660008481526020019081526020016000209081612a029190614841565b507ff8e1a15aba9398e019f0b49df1a4fde98ee17ae345cb5f6b5e2c27f5033e8ce782604051612a3291906135b3565b60405180910390a15050565b8173ffffffffffffffffffffffffffffffffffffffff168373ffffffffffffffffffffffffffffffffffffffff1603612aac576040517f08c379a0000000000000000000000000000000000000000000000000000000008152600401612aa39061495f565b60405180910390fd5b80600560008573ffffffffffffffffffffffffffffffffffffffff1673ffffffffffffffffffffffffffffffffffffffff16815260200190815260200160002060008473ffffffffffffffffffffffffffffffffffffffff1673ffffffffffffffffffffffffffffffffffffffff16815260200190815260200160002060006101000a81548160ff0219169083151502179055508173ffffffffffffffffffffffffffffffffffffffff168373ffffffffffffffffffffffffffffffffffffffff167f17307eab39ab6107e8899845ad3d59bd9653f200f220920489ca2b5937696c3183604051612b9d9190613221565b60405180910390a3505050565b612bb58484846123d8565b612bc184848484612d3c565b612c00576040517f08c379a0000000000000000000000000000000000000000000000000000000008152600401612bf7906149f1565b60405180910390fd5b50505050565b606060405180602001604052806000815250905090565b6060612c2882612229565b6000612c32612c06565b90506000815111612c525760405180602001604052806000815250612c7d565b80612c5c84612ec3565b604051602001612c6d929190614377565b6040516020818303038152906040525b915050919050565b60007f01ffc9a7000000000000000000000000000000000000000000000000000000007bffffffffffffffffffffffffffffffffffffffffffffffffffffffff1916827bffffffffffffffffffffffffffffffffffffffffffffffffffffffff1916149050919050565b60008073ffffffffffffffffffffffffffffffffffffffff16612d118361272a565b73ffffffffffffffffffffffffffffffffffffffff1614159050919050565b50505050565b50505050565b6000612d5d8473ffffffffffffffffffffffffffffffffffffffff16612f91565b15612eb6578373ffffffffffffffffffffffffffffffffffffffff1663150b7a02612d86612274565b8786866040518563ffffffff1660e01b8152600401612da89493929190614a66565b6020604051808303816000875af1925050508015612de457506040513d601f19601f82011682018060405250810190612de19190614ac7565b60015b612e66573d8060008114612e14576040519150601f19603f3d011682016040523d82523d6000602084013e612e19565b606091505b506000815103612e5e576040517f08c379a0000000000000000000000000000000000000000000000000000000008152600401612e55906149f1565b60405180910390fd5b805181602001fd5b63150b7a0260e01b7bffffffffffffffffffffffffffffffffffffffffffffffffffffffff1916817bffffffffffffffffffffffffffffffffffffffffffffffffffffffff191614915050612ebb565b600190505b949350505050565b606060006001612ed284612fb4565b01905060008167ffffffffffffffff811115612ef157612ef0613698565b5b6040519080825280601f01601f191660200182016040528015612f235781602001600182028036833780820191505090505b509050600082602001820190505b600115612f86578080600190039150507f3031323334353637383961626364656600000000000000000000000000000000600a86061a8153600a8581612f7a57612f79614af4565b5b04945060008503612f31575b819350505050919050565b6000808273ffffffffffffffffffffffffffffffffffffffff163b119050919050565b600080600090507a184f03e93ff9f4daa797ed6e38ed64bf6a1f0100000000000000008310613012577a184f03e93ff9f4daa797ed6e38ed64bf6a1f010000000000000000838161300857613007614af4565b5b0492506040810190505b6d04ee2d6d415b85acef8100000000831061304f576d04ee2d6d415b85acef8100000000838161304557613044614af4565b5b0492506020810190505b662386f26fc10000831061307e57662386f26fc10000838161307457613073614af4565b5b0492506010810190505b6305f5e10083106130a7576305f5e100838161309d5761309c614af4565b5b0492506008810190505b61271083106130cc5761271083816130c2576130c1614af4565b5b0492506004810190505b606483106130ef57606483816130e5576130e4614af4565b5b0492506002810190505b600a83106130fe576001810190505b80915050919050565b6040518060c0016040528060008152602001600073ffffffffffffffffffffffffffffffffffffffff168152602001600073ffffffffffffffffffffffffffffffffffffffff168152602001600081526020016000151581526020016000151581525090565b6000604051905090565b600080fd5b600080fd5b60007fffffffff0000000000000000000000000000000000000000000000000000000082169050919050565b6131b681613181565b81146131c157600080fd5b50565b6000813590506131d3816131ad565b92915050565b6000602082840312156131ef576131ee613177565b5b60006131fd848285016131c4565b91505092915050565b60008115159050919050565b61321b81613206565b82525050565b60006020820190506132366000830184613212565b92915050565b600081519050919050565b600082825260208201905092915050565b60005b8381101561327657808201518184015260208101905061325b565b60008484015250505050565b6000601f19601f8301169050919050565b600061329e8261323c565b6132a88185613247565b93506132b8818560208601613258565b6132c181613282565b840191505092915050565b600060208201905081810360008301526132e68184613293565b905092915050565b6000819050919050565b613301816132ee565b811461330c57600080fd5b50565b60008135905061331e816132f8565b92915050565b60006020828403121561333a57613339613177565b5b60006133488482850161330f565b91505092915050565b600073ffffffffffffffffffffffffffffffffffffffff82169050919050565b600061337c82613351565b9050919050565b61338c81613371565b82525050565b60006020820190506133a76000830184613383565b92915050565b6133b681613371565b81146133c157600080fd5b50565b6000813590506133d3816133ad565b92915050565b600080604083850312156133f0576133ef613177565b5b60006133fe858286016133c4565b925050602061340f8582860161330f565b9150509250929050565b600081519050919050565b600082825260208201905092915050565b6000819050602082019050919050565b61344e816132ee565b82525050565b600061345f82613351565b9050919050565b61346f81613454565b82525050565b61347e81613206565b82525050565b60c08201600082015161349a6000850182613445565b5060208201516134ad6020850182613466565b5060408201516134c06040850182613466565b5060608201516134d36060850182613445565b5060808201516134e66080850182613475565b5060a08201516134f960a0850182613475565b50505050565b600061350b8383613484565b60c08301905092915050565b6000602082019050919050565b600061352f82613419565b6135398185613424565b935061354483613435565b8060005b8381101561357557815161355c88826134ff565b975061356783613517565b925050600181019050613548565b5085935050505092915050565b6000602082019050818103600083015261359c8184613524565b905092915050565b6135ad816132ee565b82525050565b60006020820190506135c860008301846135a4565b92915050565b6000806000606084860312156135e7576135e6613177565b5b60006135f5868287016133c4565b9350506020613606868287016133c4565b92505060406136178682870161330f565b9150509250925092565b6000806040838503121561363857613637613177565b5b60006136468582860161330f565b92505060206136578582860161330f565b9150509250929050565b60006020828403121561367757613676613177565b5b6000613685848285016133c4565b91505092915050565b600080fd5b600080fd5b7f4e487b7100000000000000000000000000000000000000000000000000000000600052604160045260246000fd5b6136d082613282565b810181811067ffffffffffffffff821117156136ef576136ee613698565b5b80604052505050565b600061370261316d565b905061370e82826136c7565b919050565b600067ffffffffffffffff82111561372e5761372d613698565b5b61373782613282565b9050602081019050919050565b82818337600083830152505050565b600061376661376184613713565b6136f8565b90508281526020810184848401111561378257613781613693565b5b61378d848285613744565b509392505050565b600082601f8301126137aa576137a961368e565b5b81356137ba848260208601613753565b91505092915050565b600080604083850312156137da576137d9613177565b5b600083013567ffffffffffffffff8111156137f8576137f761317c565b5b61380485828601613795565b92505060206138158582860161330f565b9150509250929050565b61382881613206565b811461383357600080fd5b50565b6000813590506138458161381f565b92915050565b6000806040838503121561386257613861613177565b5b6000613870858286016133c4565b925050602061388185828601613836565b9150509250929050565b600067ffffffffffffffff8211156138a6576138a5613698565b5b6138af82613282565b9050602081019050919050565b60006138cf6138ca8461388b565b6136f8565b9050828152602081018484840111156138eb576138ea613693565b5b6138f6848285613744565b509392505050565b600082601f8301126139135761391261368e565b5b81356139238482602086016138bc565b91505092915050565b6000806000806080858703121561394657613945613177565b5b6000613954878288016133c4565b9450506020613965878288016133c4565b93505060406139768782880161330f565b925050606085013567ffffffffffffffff8111156139975761399661317c565b5b6139a3878288016138fe565b91505092959194509250565b60c0820160008201516139c56000850182613445565b5060208201516139d86020850182613466565b5060408201516139eb6040850182613466565b5060608201516139fe6060850182613445565b506080820151613a116080850182613475565b5060a0820151613a2460a0850182613475565b50505050565b600060c082019050613a3f60008301846139af565b92915050565b60008060408385031215613a5c57613a5b613177565b5b6000613a6a858286016133c4565b9250506020613a7b858286016133c4565b9150509250929050565b7f4e487b7100000000000000000000000000000000000000000000000000000000600052602260045260246000fd5b60006002820490506001821680613acc57607f821691505b602082108103613adf57613ade613a85565b5b50919050565b7f4552433732313a20617070726f76616c20746f2063757272656e74206f776e6560008201527f7200000000000000000000000000000000000000000000000000000000000000602082015250565b6000613b41602183613247565b9150613b4c82613ae5565b604082019050919050565b60006020820190508181036000830152613b7081613b34565b9050919050565b7f4552433732313a20617070726f76652063616c6c6572206973206e6f7420746f60008201527f6b656e206f776e6572206f7220617070726f76656420666f7220616c6c000000602082015250565b6000613bd3603d83613247565b9150613bde82613b77565b604082019050919050565b60006020820190508181036000830152613c0281613bc6565b9050919050565b7f4e487b7100000000000000000000000000000000000000000000000000000000600052601160045260246000fd5b6000613c43826132ee565b9150613c4e836132ee565b9250828203905081811115613c6657613c65613c09565b5b92915050565b6000613c77826132ee565b9150613c82836132ee565b9250828201905080821115613c9a57613c99613c09565b5b92915050565b7f4e487b7100000000000000000000000000000000000000000000000000000000600052603260045260246000fd5b6000613cda826132ee565b91507fffffffffffffffffffffffffffffffffffffffffffffffffffffffffffffffff8203613d0c57613d0b613c09565b5b600182019050919050565b7f4552433732313a2063616c6c6572206973206e6f7420746f6b656e206f776e6560008201527f72206f7220617070726f76656400000000000000000000000000000000000000602082015250565b6000613d73602d83613247565b9150613d7e82613d17565b604082019050919050565b60006020820190508181036000830152613da281613d66565b9050919050565b7f4f6e6c792073656c6c65722063616e2077697468647261770000000000000000600082015250565b6000613ddf601883613247565b9150613dea82613da9565b602082019050919050565b60006020820190508181036000830152613e0e81613dd2565b9050919050565b7f4974656d206e6f74206c69737465640000000000000000000000000000000000600082015250565b6000613e4b600f83613247565b9150613e5682613e15565b602082019050919050565b60006020820190508181036000830152613e7a81613e3e565b9050919050565b7f4974656d20616c726561647920736f6c64000000000000000000000000000000600082015250565b6000613eb7601183613247565b9150613ec282613e81565b602082019050919050565b60006020820190508181036000830152613ee681613eaa565b9050919050565b7f5072696365206d757374206265206174206c6561737420312077656900000000600082015250565b6000613f23601c83613247565b9150613f2e82613eed565b602082019050919050565b60006020820190508181036000830152613f5281613f16565b9050919050565b7f5072696365206d75737420626520657175616c20746f206c697374696e67207060008201527f7269636500000000000000000000000000000000000000000000000000000000602082015250565b6000613fb5602483613247565b9150613fc082613f59565b604082019050919050565b60006020820190508181036000830152613fe481613fa8565b9050919050565b7f4f6e6c7920746f6b656e206f776e65722063616e206c69737400000000000000600082015250565b6000614021601983613247565b915061402c82613feb565b602082019050919050565b6000602082019050818103600083015261405081614014565b9050919050565b600060808201905061406c6000830187613383565b6140796020830186613383565b61408660408301856135a4565b6140936060830184613212565b95945050505050565b7f4552433732313a20696e76616c696420746f6b656e2049440000000000000000600082015250565b60006140d2601883613247565b91506140dd8261409c565b602082019050919050565b60006020820190508181036000830152614101816140c5565b9050919050565b7f4552433732313a2061646472657373207a65726f206973206e6f74206120766160008201527f6c6964206f776e65720000000000000000000000000000000000000000000000602082015250565b6000614164602983613247565b915061416f82614108565b604082019050919050565b6000602082019050818103600083015261419381614157565b9050919050565b7f4f6e6c79206d61726b6574706c616365206f776e65722063616e2063616c6c2060008201527f7468697300000000000000000000000000000000000000000000000000000000602082015250565b60006141f6602483613247565b91506142018261419a565b604082019050919050565b60006020820190508181036000830152614225816141e9565b9050919050565b7f506c65617365207375626d6974207468652061736b696e672070726963650000600082015250565b6000614262601e83613247565b915061426d8261422c565b602082019050919050565b6000602082019050818103600083015261429181614255565b9050919050565b7f4974656d206e6f74206c697374656420666f722073616c650000000000000000600082015250565b60006142ce601883613247565b91506142d982614298565b602082019050919050565b600060208201905081810360008301526142fd816142c1565b9050919050565b60006060820190506143196000830186613383565b6143266020830185613383565b61433360408301846135a4565b949350505050565b600081905092915050565b60006143518261323c565b61435b818561433b565b935061436b818560208601613258565b80840191505092915050565b60006143838285614346565b915061438f8284614346565b91508190509392505050565b7f4552433732313a207472616e736665722066726f6d20696e636f72726563742060008201527f6f776e6572000000000000000000000000000000000000000000000000000000602082015250565b60006143f7602583613247565b91506144028261439b565b604082019050919050565b60006020820190508181036000830152614426816143ea565b9050919050565b7f4552433732313a207472616e7366657220746f20746865207a65726f2061646460008201527f7265737300000000000000000000000000000000000000000000000000000000602082015250565b6000614489602483613247565b91506144948261442d565b604082019050919050565b600060208201905081810360008301526144b88161447c565b9050919050565b7f5265656e7472616e637947756172643a207265656e7472616e742063616c6c00600082015250565b60006144f5601f83613247565b9150614500826144bf565b602082019050919050565b60006020820190508181036000830152614524816144e8565b9050919050565b7f4552433732313a206d696e7420746f20746865207a65726f2061646472657373600082015250565b6000614561602083613247565b915061456c8261452b565b602082019050919050565b6000602082019050818103600083015261459081614554565b9050919050565b7f4552433732313a20746f6b656e20616c7265616479206d696e74656400000000600082015250565b60006145cd601c83613247565b91506145d882614597565b602082019050919050565b600060208201905081810360008301526145fc816145c0565b9050919050565b7f45524337323155524953746f726167653a2055524920736574206f66206e6f6e60008201527f6578697374656e7420746f6b656e000000000000000000000000000000000000602082015250565b600061465f602e83613247565b915061466a82614603565b604082019050919050565b6000602082019050818103600083015261468e81614652565b9050919050565b60008190508160005260206000209050919050565b60006020601f8301049050919050565b600082821b905092915050565b6000600883026146f77fffffffffffffffffffffffffffffffffffffffffffffffffffffffffffffffff826146ba565b61470186836146ba565b95508019841693508086168417925050509392505050565b6000819050919050565b600061473e614739614734846132ee565b614719565b6132ee565b9050919050565b6000819050919050565b61475883614723565b61476c61476482614745565b8484546146c7565b825550505050565b600090565b614781614774565b61478c81848461474f565b505050565b5b818110156147b0576147a5600082614779565b600181019050614792565b5050565b601f8211156147f5576147c681614695565b6147cf846146aa565b810160208510156147de578190505b6147f26147ea856146aa565b830182614791565b50505b505050565b600082821c905092915050565b6000614818600019846008026147fa565b1980831691505092915050565b60006148318383614807565b9150826002028217905092915050565b61484a8261323c565b67ffffffffffffffff81111561486357614862613698565b5b61486d8254613ab4565b6148788282856147b4565b600060209050601f8311600181146148ab5760008415614899578287015190505b6148a38582614825565b86555061490b565b601f1984166148b986614695565b60005b828110156148e1578489015182556001820191506020850194506020810190506148bc565b868310156148fe57848901516148fa601f891682614807565b8355505b6001600288020188555050505b505050505050565b7f4552433732313a20617070726f766520746f2063616c6c657200000000000000600082015250565b6000614949601983613247565b915061495482614913565b602082019050919050565b600060208201905081810360008301526149788161493c565b9050919050565b7f4552433732313a207472616e7366657220746f206e6f6e20455243373231526560008201527f63656976657220696d706c656d656e7465720000000000000000000000000000602082015250565b60006149db603283613247565b91506149e68261497f565b604082019050919050565b60006020820190508181036000830152614a0a816149ce565b9050919050565b600081519050919050565b600082825260208201905092915050565b6000614a3882614a11565b614a428185614a1c565b9350614a52818560208601613258565b614a5b81613282565b840191505092915050565b6000608082019050614a7b6000830187613383565b614a886020830186613383565b614a9560408301856135a4565b8181036060830152614aa78184614a2d565b905095945050505050565b600081519050614ac1816131ad565b92915050565b600060208284031215614add57614adc613177565b5b6000614aeb84828501614ab2565b91505092915050565b7f4e487b7100000000000000000000000000000000000000000000000000000000600052601260045260246000fdfea2646970667358221220b03768b05605e13b2a81769ceb0d38995418151d20ce5a9cfc247f0dde6c7c8064736f6c63430008130033",
  "linkReferences": {},
  "deployedLinkReferences": {}
}