{
  "_format": "hh-sol-artifact-1",
  "contractName": "NFTMarketplace",
  "sourceName": "contracts/NFTMarketplace.sol",
  "abi": [
    {
      "inputs": [],
      "stateMutability": "nonpayable",
      "type": "constructor"
    },
    {
      "anonymous": false,
      "inputs": [
        {
          "indexed": true,
          "internalType": "address",
          "name": "owner",
          "type": "address"
        },
        {
          "indexed": true,
          "internalType": "address",
          "name": "approved",
          "type": "address"
        },
        {
          "indexed": true,
          "internalType": "uint256",
          "name": "tokenId",
          "type": "uint256"
        }
      ],
      "name": "Approval",
      "type": "event"
    },
    {
      "anonymous": false,
      "inputs": [
        {
          "indexed": true,
          "internalType": "address",
          "name": "owner",
          "type": "address"
        },
        {
          "indexed": true,
          "internalType": "address",
          "name": "operator",
          "type": "address"
        },
        {
          "indexed": false,
          "internalType": "bool",
          "name": "approved",
          "type": "bool"
        }
      ],
      "name": "ApprovalForAll",
      "type": "event"
    },
    {
      "anonymous": false,
      "inputs": [
        {
          "indexed": false,
          "internalType": "uint256",
          "name": "_fromTokenId",
          "type": "uint256"
        },
        {
          "indexed": false,
          "internalType": "uint256",
          "name": "_toTokenId",
          "type": "uint256"
        }
      ],
      "name": "BatchMetadataUpdate",
      "type": "event"
    },
    {
      "anonymous": false,
      "inputs": [
        {
          "indexed": true,
          "internalType": "uint256",
          "name": "tokenId",
          "type": "uint256"
        },
        {
          "indexed": false,
          "internalType": "address",
          "name": "seller",
          "type": "address"
        },
        {
          "indexed": false,
          "internalType": "address",
          "name": "owner",
          "type": "address"
        },
        {
          "indexed": false,
          "internalType": "uint256",
          "name": "price",
          "type": "uint256"
        },
        {
          "indexed": false,
          "internalType": "bool",
          "name": "sold",
          "type": "bool"
        }
      ],
      "name": "MarketItemCreated",
      "type": "event"
    },
    {
      "anonymous": false,
      "inputs": [
        {
          "indexed": true,
          "internalType": "uint256",
          "name": "tokenId",
          "type": "uint256"
        },
        {
          "indexed": false,
          "internalType": "address",
          "name": "seller",
          "type": "address"
        },
        {
          "indexed": false,
          "internalType": "address",
          "name": "buyer",
          "type": "address"
        },
        {
          "indexed": false,
          "internalType": "uint256",
          "name": "price",
          "type": "uint256"
        }
      ],
      "name": "MarketItemSold",
      "type": "event"
    },
    {
      "anonymous": false,
      "inputs": [
        {
          "indexed": false,
          "internalType": "uint256",
          "name": "_tokenId",
          "type": "uint256"
        }
      ],
      "name": "MetadataUpdate",
      "type": "event"
    },
    {
      "anonymous": false,
      "inputs": [
        {
          "indexed": true,
          "internalType": "address",
          "name": "from",
          "type": "address"
        },
        {
          "indexed": true,
          "internalType": "address",
          "name": "to",
          "type": "address"
        },
        {
          "indexed": true,
          "internalType": "uint256",
          "name": "tokenId",
          "type": "uint256"
        }
      ],
      "name": "Transfer",
      "type": "event"
    },
    {
      "inputs": [
        {
          "internalType": "address",
          "name": "to",
          "type": "address"
        },
        {
          "internalType": "uint256",
          "name": "tokenId",
          "type": "uint256"
        }
      ],
      "name": "approve",
      "outputs": [],
      "stateMutability": "nonpayable",
      "type": "function"
    },
    {
      "inputs": [
        {
          "internalType": "address",
          "name": "owner",
          "type": "address"
        }
      ],
      "name": "balanceOf",
      "outputs": [
        {
          "internalType": "uint256",
          "name": "",
          "type": "uint256"
        }
      ],
      "stateMutability": "view",
      "type": "function"
    },
    {
      "inputs": [
        {
          "internalType": "uint256",
          "name": "tokenId",
          "type": "uint256"
        },
        {
          "internalType": "uint256",
          "name": "price",
          "type": "uint256"
        }
      ],
      "name": "createMarketItem",
      "outputs": [],
      "stateMutability": "payable",
      "type": "function"
    },
    {
      "inputs": [
        {
          "internalType": "uint256",
          "name": "tokenId",
          "type": "uint256"
        }
      ],
      "name": "createMarketSale",
      "outputs": [],
      "stateMutability": "payable",
      "type": "function"
    },
    {
      "inputs": [
        {
          "internalType": "string",
          "name": "tokenURI",
          "type": "string"
        },
        {
          "internalType": "uint256",
          "name": "price",
          "type": "uint256"
        }
      ],
      "name": "createToken",
      "outputs": [
        {
          "internalType": "uint256",
          "name": "",
          "type": "uint256"
        }
      ],
      "stateMutability": "payable",
      "type": "function"
    },
    {
      "inputs": [],
      "name": "fetchAllMarketItems",
      "outputs": [
        {
          "components": [
            {
              "internalType": "uint256",
              "name": "tokenId",
              "type": "uint256"
            },
            {
              "internalType": "address payable",
              "name": "seller",
              "type": "address"
            },
            {
              "internalType": "address payable",
              "name": "owner",
              "type": "address"
            },
            {
              "internalType": "uint256",
              "name": "price",
              "type": "uint256"
            },
            {
              "internalType": "bool",
              "name": "sold",
              "type": "bool"
            },
            {
              "internalType": "bool",
              "name": "listed",
              "type": "bool"
            }
          ],
          "internalType": "struct NFTMarketplace.MarketItem[]",
          "name": "",
          "type": "tuple[]"
        }
      ],
      "stateMutability": "view",
      "type": "function"
    },
    {
      "inputs": [],
      "name": "fetchItemsListed",
      "outputs": [
        {
          "components": [
            {
              "internalType": "uint256",
              "name": "tokenId",
              "type": "uint256"
            },
            {
              "internalType": "address payable",
              "name": "seller",
              "type": "address"
            },
            {
              "internalType": "address payable",
              "name": "owner",
              "type": "address"
            },
            {
              "internalType": "uint256",
              "name": "price",
              "type": "uint256"
            },
            {
              "internalType": "bool",
              "name": "sold",
              "type": "bool"
            },
            {
              "internalType": "bool",
              "name": "listed",
              "type": "bool"
            }
          ],
          "internalType": "struct NFTMarketplace.MarketItem[]",
          "name": "",
          "type": "tuple[]"
        }
      ],
      "stateMutability": "view",
      "type": "function"
    },
    {
      "inputs": [],
      "name": "fetchMarketItems",
      "outputs": [
        {
          "components": [
            {
              "internalType": "uint256",
              "name": "tokenId",
              "type": "uint256"
            },
            {
              "internalType": "address payable",
              "name": "seller",
              "type": "address"
            },
            {
              "internalType": "address payable",
              "name": "owner",
              "type": "address"
            },
            {
              "internalType": "uint256",
              "name": "price",
              "type": "uint256"
            },
            {
              "internalType": "bool",
              "name": "sold",
              "type": "bool"
            },
            {
              "internalType": "bool",
              "name": "listed",
              "type": "bool"
            }
          ],
          "internalType": "struct NFTMarketplace.MarketItem[]",
          "name": "",
          "type": "tuple[]"
        }
      ],
      "stateMutability": "view",
      "type": "function"
    },
    {
      "inputs": [],
      "name": "fetchMyNFTs",
      "outputs": [
        {
          "components": [
            {
              "internalType": "uint256",
              "name": "tokenId",
              "type": "uint256"
            },
            {
              "internalType": "address payable",
              "name": "seller",
              "type": "address"
            },
            {
              "internalType": "address payable",
              "name": "owner",
              "type": "address"
            },
            {
              "internalType": "uint256",
              "name": "price",
              "type": "uint256"
            },
            {
              "internalType": "bool",
              "name": "sold",
              "type": "bool"
            },
            {
              "internalType": "bool",
              "name": "listed",
              "type": "bool"
            }
          ],
          "internalType": "struct NFTMarketplace.MarketItem[]",
          "name": "",
          "type": "tuple[]"
        }
      ],
      "stateMutability": "view",
      "type": "function"
    },
    {
      "inputs": [
        {
          "internalType": "uint256",
          "name": "tokenId",
          "type": "uint256"
        }
      ],
      "name": "getApproved",
      "outputs": [
        {
          "internalType": "address",
          "name": "",
          "type": "address"
        }
      ],
      "stateMutability": "view",
      "type": "function"
    },
    {
      "inputs": [],
      "name": "getListingPrice",
      "outputs": [
        {
          "internalType": "uint256",
          "name": "",
          "type": "uint256"
        }
      ],
      "stateMutability": "view",
      "type": "function"
    },
    {
      "inputs": [
        {
          "internalType": "uint256",
          "name": "tokenId",
          "type": "uint256"
        }
      ],
      "name": "getMarketItem",
      "outputs": [
        {
          "components": [
            {
              "internalType": "uint256",
              "name": "tokenId",
              "type": "uint256"
            },
            {
              "internalType": "address payable",
              "name": "seller",
              "type": "address"
            },
            {
              "internalType": "address payable",
              "name": "owner",
              "type": "address"
            },
            {
              "internalType": "uint256",
              "name": "price",
              "type": "uint256"
            },
            {
              "internalType": "bool",
              "name": "sold",
              "type": "bool"
            },
            {
              "internalType": "bool",
              "name": "listed",
              "type": "bool"
            }
          ],
          "internalType": "struct NFTMarketplace.MarketItem",
          "name": "",
          "type": "tuple"
        }
      ],
      "stateMutability": "view",
      "type": "function"
    },
    {
      "inputs": [
        {
          "internalType": "uint256",
          "name": "tokenId",
          "type": "uint256"
        }
      ],
      "name": "getTokenCreator",
      "outputs": [
        {
          "internalType": "address",
          "name": "",
          "type": "address"
        }
      ],
      "stateMutability": "view",
      "type": "function"
    },
    {
      "inputs": [
        {
          "internalType": "address",
          "name": "owner",
          "type": "address"
        },
        {
          "internalType": "address",
          "name": "operator",
          "type": "address"
        }
      ],
      "name": "isApprovedForAll",
      "outputs": [
        {
          "internalType": "bool",
          "name": "",
          "type": "bool"
        }
      ],
      "stateMutability": "view",
      "type": "function"
    },
    {
      "inputs": [],
      "name": "name",
      "outputs": [
        {
          "internalType": "string",
          "name": "",
          "type": "string"
        }
      ],
      "stateMutability": "view",
      "type": "function"
    },
    {
      "inputs": [
        {
          "internalType": "uint256",
          "name": "tokenId",
          "type": "uint256"
        }
      ],
      "name": "ownerOf",
      "outputs": [
        {
          "internalType": "address",
          "name": "",
          "type": "address"
        }
      ],
      "stateMutability": "view",
      "type": "function"
    },
    {
      "inputs": [
        {
          "internalType": "address",
          "name": "from",
          "type": "address"
        },
        {
          "internalType": "address",
          "name": "to",
          "type": "address"
        },
        {
          "internalType": "uint256",
          "name": "tokenId",
          "type": "uint256"
        }
      ],
      "name": "safeTransferFrom",
      "outputs": [],
      "stateMutability": "nonpayable",
      "type": "function"
    },
    {
      "inputs": [
        {
          "internalType": "address",
          "name": "from",
          "type": "address"
        },
        {
          "internalType": "address",
          "name": "to",
          "type": "address"
        },
        {
          "internalType": "uint256",
          "name": "tokenId",
          "type": "uint256"
        },
        {
          "internalType": "bytes",
          "name": "data",
          "type": "bytes"
        }
      ],
      "name": "safeTransferFrom",
      "outputs": [],
      "stateMutability": "nonpayable",
      "type": "function"
    },
    {
      "inputs": [
        {
          "internalType": "address",
          "name": "operator",
          "type": "address"
        },
        {
          "internalType": "bool",
          "name": "approved",
          "type": "bool"
        }
      ],
      "name": "setApprovalForAll",
      "outputs": [],
      "stateMutability": "nonpayable",
      "type": "function"
    },
    {
      "inputs": [
        {
          "internalType": "bytes4",
          "name": "interfaceId",
          "type": "bytes4"
        }
      ],
      "name": "supportsInterface",
      "outputs": [
        {
          "internalType": "bool",
          "name": "",
          "type": "bool"
        }
      ],
      "stateMutability": "view",
      "type": "function"
    },
    {
      "inputs": [],
      "name": "symbol",
      "outputs": [
        {
          "internalType": "string",
          "name": "",
          "type": "string"
        }
      ],
      "stateMutability": "view",
      "type": "function"
    },
    {
      "inputs": [
        {
          "internalType": "uint256",
          "name": "tokenId",
          "type": "uint256"
        }
      ],
      "name": "tokenURI",
      "outputs": [
        {
          "internalType": "string",
          "name": "",
          "type": "string"
        }
      ],
      "stateMutability": "view",
      "type": "function"
    },
    {
      "inputs": [
        {
          "internalType": "address",
          "name": "from",
          "type": "address"
        },
        {
          "internalType": "address",
          "name": "to",
          "type": "address"
        },
        {
          "internalType": "uint256",
          "name": "tokenId",
          "type": "uint256"
        }
      ],
      "name": "transferFrom",
      "outputs": [],
      "stateMutability": "nonpayable",
      "type": "function"
    },
    {
      "inputs": [
        {
          "internalType": "uint256",
          "name": "_listingPrice",
          "type": "uint256"
        }
      ],
      "name": "updateListingPrice",
      "outputs": [],
      "stateMutability": "nonpayable",
      "type": "function"
    },
    {
      "inputs": [
        {
          "internalType": "uint256",
          "name": "tokenId",
          "type": "uint256"
        }
      ],
      "name": "withdrawListingItem",
      "outputs": [],
      "stateMutability": "nonpayable",
      "type": "function"
    }
  ],
  "bytecode": "0x60806040526658d15e17628000600a553480156200001c57600080fd5b506040518060400160405280600f81526020017f4e4654204d61726b6574706c61636500000000000000000000000000000000008152506040518060400160405280600481526020017f4e46544d0000000000000000000000000000000000000000000000000000000081525081600090816200009a919062000378565b508060019081620000ac919062000378565b505050600160078190555033600b60006101000a81548173ffffffffffffffffffffffffffffffffffffffff021916908373ffffffffffffffffffffffffffffffffffffffff1602179055506200045f565b600081519050919050565b7f4e487b7100000000000000000000000000000000000000000000000000000000600052604160045260246000fd5b7f4e487b7100000000000000000000000000000000000000000000000000000000600052602260045260246000fd5b600060028204905060018216806200018057607f821691505b60208210810362000196576200019562000138565b5b50919050565b60008190508160005260206000209050919050565b60006020601f8301049050919050565b600082821b905092915050565b600060088302620002007fffffffffffffffffffffffffffffffffffffffffffffffffffffffffffffffff82620001c1565b6200020c8683620001c1565b95508019841693508086168417925050509392505050565b6000819050919050565b6000819050919050565b600062000259620002536200024d8462000224565b6200022e565b62000224565b9050919050565b6000819050919050565b620002758362000238565b6200028d620002848262000260565b848454620001ce565b825550505050565b600090565b620002a462000295565b620002b18184846200026a565b505050565b5b81811015620002d957620002cd6000826200029a565b600181019050620002b7565b5050565b601f8211156200032857620002f2816200019c565b620002fd84620001b1565b810160208510156200030d578190505b620003256200031c85620001b1565b830182620002b6565b50505b505050565b600082821c905092915050565b60006200034d600019846008026200032d565b1980831691505092915050565b60006200036883836200033a565b9150826002028217905092915050565b6200038382620000fe565b67ffffffffffffffff8111156200039f576200039e62000109565b5b620003ab825462000167565b620003b8828285620002dd565b600060209050601f831160018114620003f05760008415620003db578287015190505b620003e785826200035a565b86555062000457565b601f19841662000400866200019c565b60005b828110156200042a5784890151825560018201915060208501945060208101905062000403565b868310156200044a578489015162000446601f8916826200033a565b8355505b6001600288020188555050505b505050505050565b614e6d806200046f6000396000f3fe6080604052600436106101665760003560e01c80636352211e116100d1578063ae677aa31161008a578063c7be7a4911610064578063c7be7a4914610525578063c87b56dd14610562578063dfb6452b1461059f578063e985e9c5146105ca57610166565b8063ae677aa3146104b7578063b88d4fde146104e0578063be9af5361461050957610166565b80636352211e1461037c57806370a08231146103b957806372b3b620146103f6578063934689a91461042657806395d89b4114610463578063a22cb4651461048e57610166565b8063202e374011610123578063202e37401461028f57806323b872dd146102ba5780633279d4b0146102e3578063361c19951461030c57806342842e0e1461032857806345f8fa801461035157610166565b806301ffc9a71461016b57806306fdde03146101a8578063081812fc146101d3578063095ea7b3146102105780630f08efe01461023957806312e8558514610264575b600080fd5b34801561017757600080fd5b50610192600480360381019061018d91906134ed565b610607565b60405161019f9190613535565b60405180910390f35b3480156101b457600080fd5b506101bd610668565b6040516101ca91906135e0565b60405180910390f35b3480156101df57600080fd5b506101fa60048036038101906101f59190613638565b6106fa565b60405161020791906136a6565b60405180910390f35b34801561021c57600080fd5b50610237600480360381019061023291906136ed565b610740565b005b34801561024557600080fd5b5061024e610857565b60405161025b9190613896565b60405180910390f35b34801561027057600080fd5b50610279610ad3565b60405161028691906138c7565b60405180910390f35b34801561029b57600080fd5b506102a4610add565b6040516102b19190613896565b60405180910390f35b3480156102c657600080fd5b506102e160048036038101906102dc91906138e2565b610de4565b005b3480156102ef57600080fd5b5061030a60048036038101906103059190613638565b610e44565b005b61032660048036038101906103219190613935565b6110a7565b005b34801561033457600080fd5b5061034f600480360381019061034a91906138e2565b611359565b005b34801561035d57600080fd5b50610366611379565b6040516103739190613896565b60405180910390f35b34801561038857600080fd5b506103a3600480360381019061039e9190613638565b611764565b6040516103b091906136a6565b60405180910390f35b3480156103c557600080fd5b506103e060048036038101906103db9190613975565b6117ea565b6040516103ed91906138c7565b60405180910390f35b610410600480360381019061040b9190613ad7565b6118a1565b60405161041d91906138c7565b60405180910390f35b34801561043257600080fd5b5061044d60048036038101906104489190613638565b611a9d565b60405161045a91906136a6565b60405180910390f35b34801561046f57600080fd5b50610478611ada565b60405161048591906135e0565b60405180910390f35b34801561049a57600080fd5b506104b560048036038101906104b09190613b5f565b611b6c565b005b3480156104c357600080fd5b506104de60048036038101906104d99190613638565b611b82565b005b3480156104ec57600080fd5b5061050760048036038101906105029190613c40565b611c1c565b005b610523600480360381019061051e9190613638565b611c7e565b005b34801561053157600080fd5b5061054c60048036038101906105479190613638565b611fa8565b6040516105599190613d3e565b60405180910390f35b34801561056e57600080fd5b5061058960048036038101906105849190613638565b6120cb565b60405161059691906135e0565b60405180910390f35b3480156105ab57600080fd5b506105b46121dd565b6040516105c19190613896565b60405180910390f35b3480156105d657600080fd5b506105f160048036038101906105ec9190613d59565b6123c7565b6040516105fe9190613535565b60405180910390f35b6000634906490660e01b7bffffffffffffffffffffffffffffffffffffffffffffffffffffffff1916827bffffffffffffffffffffffffffffffffffffffffffffffffffffffff1916148061066157506106608261245b565b5b9050919050565b60606000805461067790613dc8565b80601f01602080910402602001604051908101604052809291908181526020018280546106a390613dc8565b80156106f05780601f106106c5576101008083540402835291602001916106f0565b820191906000526020600020905b8154815290600101906020018083116106d357829003601f168201915b5050505050905090565b60006107058261253d565b6004600083815260200190815260200160002060009054906101000a900473ffffffffffffffffffffffffffffffffffffffff169050919050565b600061074b82611764565b90508073ffffffffffffffffffffffffffffffffffffffff168373ffffffffffffffffffffffffffffffffffffffff16036107bb576040517f08c379a00000000000000000000000000000000000000000000000000000000081526004016107b290613e6b565b60405180910390fd5b8073ffffffffffffffffffffffffffffffffffffffff166107da612588565b73ffffffffffffffffffffffffffffffffffffffff161480610809575061080881610803612588565b6123c7565b5b610848576040517f08c379a000000000000000000000000000000000000000000000000000000000815260040161083f90613efd565b60405180910390fd5b6108528383612590565b505050565b606060006108656008612649565b905060006108736009612649565b61087d6008612649565b6108879190613f4c565b90506000808267ffffffffffffffff8111156108a6576108a56139ac565b5b6040519080825280602002602001820160405280156108df57816020015b6108cc61341b565b8152602001906001900390816108c45790505b50905060005b84811015610ac857600c60006001836108fe9190613f80565b815260200190815260200160002060040160019054906101000a900460ff1680156109565750600c60006001836109359190613f80565b815260200190815260200160002060040160009054906101000a900460ff16155b15610ab557600060018261096a9190613f80565b90506000600c60008381526020019081526020016000209050806040518060c0016040529081600082015481526020016001820160009054906101000a900473ffffffffffffffffffffffffffffffffffffffff1673ffffffffffffffffffffffffffffffffffffffff1673ffffffffffffffffffffffffffffffffffffffff1681526020016002820160009054906101000a900473ffffffffffffffffffffffffffffffffffffffff1673ffffffffffffffffffffffffffffffffffffffff1673ffffffffffffffffffffffffffffffffffffffff168152602001600382015481526020016004820160009054906101000a900460ff161515151581526020016004820160019054906101000a900460ff161515151581525050848681518110610a9857610a97613fb4565b5b6020026020010181905250600185610ab09190613f80565b945050505b8080610ac090613fe3565b9150506108e5565b508094505050505090565b6000600a54905090565b60606000610aeb6008612649565b905060008060005b83811015610b93573373ffffffffffffffffffffffffffffffffffffffff16600c6000600184610b239190613f80565b815260200190815260200160002060020160009054906101000a900473ffffffffffffffffffffffffffffffffffffffff1673ffffffffffffffffffffffffffffffffffffffff1603610b8057600183610b7d9190613f80565b92505b8080610b8b90613fe3565b915050610af3565b5060008267ffffffffffffffff811115610bb057610baf6139ac565b5b604051908082528060200260200182016040528015610be957816020015b610bd661341b565b815260200190600190039081610bce5790505b50905060005b84811015610dd9573373ffffffffffffffffffffffffffffffffffffffff16600c6000600184610c1f9190613f80565b815260200190815260200160002060020160009054906101000a900473ffffffffffffffffffffffffffffffffffffffff1673ffffffffffffffffffffffffffffffffffffffff1603610dc6576000600182610c7b9190613f80565b90506000600c60008381526020019081526020016000209050806040518060c0016040529081600082015481526020016001820160009054906101000a900473ffffffffffffffffffffffffffffffffffffffff1673ffffffffffffffffffffffffffffffffffffffff1673ffffffffffffffffffffffffffffffffffffffff1681526020016002820160009054906101000a900473ffffffffffffffffffffffffffffffffffffffff1673ffffffffffffffffffffffffffffffffffffffff1673ffffffffffffffffffffffffffffffffffffffff168152602001600382015481526020016004820160009054906101000a900460ff161515151581526020016004820160019054906101000a900460ff161515151581525050848681518110610da957610da8613fb4565b5b6020026020010181905250600185610dc19190613f80565b945050505b8080610dd190613fe3565b915050610bef565b508094505050505090565b610df5610def612588565b82612657565b610e34576040517f08c379a0000000000000000000000000000000000000000000000000000000008152600401610e2b9061409d565b60405180910390fd5b610e3f8383836126ec565b505050565b610e4c6129e5565b3373ffffffffffffffffffffffffffffffffffffffff16600c600083815260200190815260200160002060010160009054906101000a900473ffffffffffffffffffffffffffffffffffffffff1673ffffffffffffffffffffffffffffffffffffffff1614610ef0576040517f08c379a0000000000000000000000000000000000000000000000000000000008152600401610ee790614109565b60405180910390fd5b600c600082815260200190815260200160002060040160019054906101000a900460ff16610f53576040517f08c379a0000000000000000000000000000000000000000000000000000000008152600401610f4a90614175565b60405180910390fd5b600c600082815260200190815260200160002060040160009054906101000a900460ff1615610fb7576040517f08c379a0000000000000000000000000000000000000000000000000000000008152600401610fae906141e1565b60405180910390fd5b6000600c600083815260200190815260200160002060040160016101000a81548160ff02191690831515021790555033600c600083815260200190815260200160002060020160006101000a81548173ffffffffffffffffffffffffffffffffffffffff021916908373ffffffffffffffffffffffffffffffffffffffff1602179055506000600c600083815260200190815260200160002060010160006101000a81548173ffffffffffffffffffffffffffffffffffffffff021916908373ffffffffffffffffffffffffffffffffffffffff16021790555061109c3033836126ec565b6110a4612a34565b50565b6110af6129e5565b600081116110f2576040517f08c379a00000000000000000000000000000000000000000000000000000000081526004016110e99061424d565b60405180910390fd5b600a543414611136576040517f08c379a000000000000000000000000000000000000000000000000000000000815260040161112d906142df565b60405180910390fd5b3373ffffffffffffffffffffffffffffffffffffffff1661115683611764565b73ffffffffffffffffffffffffffffffffffffffff16146111ac576040517f08c379a00000000000000000000000000000000000000000000000000000000081526004016111a39061434b565b60405180910390fd5b6040518060c001604052808381526020013373ffffffffffffffffffffffffffffffffffffffff1681526020013073ffffffffffffffffffffffffffffffffffffffff16815260200182815260200160001515815260200160011515815250600c60008481526020019081526020016000206000820151816000015560208201518160010160006101000a81548173ffffffffffffffffffffffffffffffffffffffff021916908373ffffffffffffffffffffffffffffffffffffffff16021790555060408201518160020160006101000a81548173ffffffffffffffffffffffffffffffffffffffff021916908373ffffffffffffffffffffffffffffffffffffffff1602179055506060820151816003015560808201518160040160006101000a81548160ff02191690831515021790555060a08201518160040160016101000a81548160ff02191690831515021790555090505061130e3330846126ec565b817fb640004f1d14576d0c209e240cad0410e0d8c0c33a09375861fbadae2588a98d3330846000604051611345949392919061436b565b60405180910390a2611355612a34565b5050565b61137483838360405180602001604052806000815250611c1c565b505050565b606060006113876008612649565b905060008060005b838110156114a1573373ffffffffffffffffffffffffffffffffffffffff16600c60006001846113bf9190613f80565b815260200190815260200160002060010160009054906101000a900473ffffffffffffffffffffffffffffffffffffffff1673ffffffffffffffffffffffffffffffffffffffff161480156114405750600c60006001836114209190613f80565b815260200190815260200160002060040160019054906101000a900460ff165b80156114795750600c60006001836114589190613f80565b815260200190815260200160002060040160009054906101000a900460ff16155b1561148e5760018361148b9190613f80565b92505b808061149990613fe3565b91505061138f565b5060008267ffffffffffffffff8111156114be576114bd6139ac565b5b6040519080825280602002602001820160405280156114f757816020015b6114e461341b565b8152602001906001900390816114dc5790505b50905060005b84811015611759573373ffffffffffffffffffffffffffffffffffffffff16600c600060018461152d9190613f80565b815260200190815260200160002060010160009054906101000a900473ffffffffffffffffffffffffffffffffffffffff1673ffffffffffffffffffffffffffffffffffffffff161480156115ae5750600c600060018361158e9190613f80565b815260200190815260200160002060040160019054906101000a900460ff165b80156115e75750600c60006001836115c69190613f80565b815260200190815260200160002060040160009054906101000a900460ff16155b156117465760006001826115fb9190613f80565b90506000600c60008381526020019081526020016000209050806040518060c0016040529081600082015481526020016001820160009054906101000a900473ffffffffffffffffffffffffffffffffffffffff1673ffffffffffffffffffffffffffffffffffffffff1673ffffffffffffffffffffffffffffffffffffffff1681526020016002820160009054906101000a900473ffffffffffffffffffffffffffffffffffffffff1673ffffffffffffffffffffffffffffffffffffffff1673ffffffffffffffffffffffffffffffffffffffff168152602001600382015481526020016004820160009054906101000a900460ff161515151581526020016004820160019054906101000a900460ff16151515158152505084868151811061172957611728613fb4565b5b60200260200101819052506001856117419190613f80565b945050505b808061175190613fe3565b9150506114fd565b508094505050505090565b60008061177083612a3e565b9050600073ffffffffffffffffffffffffffffffffffffffff168173ffffffffffffffffffffffffffffffffffffffff16036117e1576040517f08c379a00000000000000000000000000000000000000000000000000000000081526004016117d8906143fc565b60405180910390fd5b80915050919050565b60008073ffffffffffffffffffffffffffffffffffffffff168273ffffffffffffffffffffffffffffffffffffffff160361185a576040517f08c379a00000000000000000000000000000000000000000000000000000000081526004016118519061448e565b60405180910390fd5b600360008373ffffffffffffffffffffffffffffffffffffffff1673ffffffffffffffffffffffffffffffffffffffff168152602001908152602001600020549050919050565b60006118ad6008612a7b565b60006118b96008612649565b90506118c53382612a91565b6118cf8185612cae565b33600d600083815260200190815260200160002060006101000a81548173ffffffffffffffffffffffffffffffffffffffff021916908373ffffffffffffffffffffffffffffffffffffffff16021790555060008311156119395761193481846110a7565b611a93565b6040518060c00160405280828152602001600073ffffffffffffffffffffffffffffffffffffffff1681526020013373ffffffffffffffffffffffffffffffffffffffff1681526020016000815260200160001515815260200160001515815250600c60008381526020019081526020016000206000820151816000015560208201518160010160006101000a81548173ffffffffffffffffffffffffffffffffffffffff021916908373ffffffffffffffffffffffffffffffffffffffff16021790555060408201518160020160006101000a81548173ffffffffffffffffffffffffffffffffffffffff021916908373ffffffffffffffffffffffffffffffffffffffff1602179055506060820151816003015560808201518160040160006101000a81548160ff02191690831515021790555060a08201518160040160016101000a81548160ff0219169083151502179055509050505b8091505092915050565b6000600d600083815260200190815260200160002060009054906101000a900473ffffffffffffffffffffffffffffffffffffffff169050919050565b606060018054611ae990613dc8565b80601f0160208091040260200160405190810160405280929190818152602001828054611b1590613dc8565b8015611b625780601f10611b3757610100808354040283529160200191611b62565b820191906000526020600020905b815481529060010190602001808311611b4557829003601f168201915b5050505050905090565b611b7e611b77612588565b8383612d52565b5050565b600b60009054906101000a900473ffffffffffffffffffffffffffffffffffffffff1673ffffffffffffffffffffffffffffffffffffffff163373ffffffffffffffffffffffffffffffffffffffff1614611c12576040517f08c379a0000000000000000000000000000000000000000000000000000000008152600401611c0990614520565b60405180910390fd5b80600a8190555050565b611c2d611c27612588565b83612657565b611c6c576040517f08c379a0000000000000000000000000000000000000000000000000000000008152600401611c639061409d565b60405180910390fd5b611c7884848484612ebe565b50505050565b611c866129e5565b6000600c60008381526020019081526020016000206003015490506000600c600084815260200190815260200160002060010160009054906101000a900473ffffffffffffffffffffffffffffffffffffffff169050813414611d1e576040517f08c379a0000000000000000000000000000000000000000000000000000000008152600401611d159061458c565b60405180910390fd5b600c600084815260200190815260200160002060040160019054906101000a900460ff16611d81576040517f08c379a0000000000000000000000000000000000000000000000000000000008152600401611d78906145f8565b60405180910390fd5b600c600084815260200190815260200160002060040160009054906101000a900460ff1615611de5576040517f08c379a0000000000000000000000000000000000000000000000000000000008152600401611ddc906141e1565b60405180910390fd5b33600c600085815260200190815260200160002060020160006101000a81548173ffffffffffffffffffffffffffffffffffffffff021916908373ffffffffffffffffffffffffffffffffffffffff1602179055506001600c600085815260200190815260200160002060040160006101000a81548160ff0219169083151502179055506000600c600085815260200190815260200160002060040160016101000a81548160ff021916908315150217905550611ea26009612a7b565b611ead3033856126ec565b600b60009054906101000a900473ffffffffffffffffffffffffffffffffffffffff1673ffffffffffffffffffffffffffffffffffffffff166108fc600a549081150290604051600060405180830381858888f19350505050158015611f17573d6000803e3d6000fd5b508073ffffffffffffffffffffffffffffffffffffffff166108fc349081150290604051600060405180830381858888f19350505050158015611f5e573d6000803e3d6000fd5b50827f150ffca547cf855e7fcf5daa82e41c6523b5fb2c8b1309bbb6cf2f87c6ae5a31823385604051611f9393929190614618565b60405180910390a25050611fa5612a34565b50565b611fb061341b565b600c60008381526020019081526020016000206040518060c0016040529081600082015481526020016001820160009054906101000a900473ffffffffffffffffffffffffffffffffffffffff1673ffffffffffffffffffffffffffffffffffffffff1673ffffffffffffffffffffffffffffffffffffffff1681526020016002820160009054906101000a900473ffffffffffffffffffffffffffffffffffffffff1673ffffffffffffffffffffffffffffffffffffffff1673ffffffffffffffffffffffffffffffffffffffff168152602001600382015481526020016004820160009054906101000a900460ff161515151581526020016004820160019054906101000a900460ff1615151515815250509050919050565b60606120d68261253d565b60006006600084815260200190815260200160002080546120f690613dc8565b80601f016020809104026020016040519081016040528092919081815260200182805461212290613dc8565b801561216f5780601f106121445761010080835404028352916020019161216f565b820191906000526020600020905b81548152906001019060200180831161215257829003601f168201915b505050505090506000612180612f1a565b905060008151036121955781925050506121d8565b6000825111156121ca5780826040516020016121b292919061468b565b604051602081830303815290604052925050506121d8565b6121d384612f31565b925050505b919050565b606060006121eb6008612649565b90506000808267ffffffffffffffff81111561220a576122096139ac565b5b60405190808252806020026020018201604052801561224357816020015b61223061341b565b8152602001906001900390816122285790505b50905060005b838110156123bd5760006001826122609190613f80565b90506000600c60008381526020019081526020016000209050806040518060c0016040529081600082015481526020016001820160009054906101000a900473ffffffffffffffffffffffffffffffffffffffff1673ffffffffffffffffffffffffffffffffffffffff1673ffffffffffffffffffffffffffffffffffffffff1681526020016002820160009054906101000a900473ffffffffffffffffffffffffffffffffffffffff1673ffffffffffffffffffffffffffffffffffffffff1673ffffffffffffffffffffffffffffffffffffffff168152602001600382015481526020016004820160009054906101000a900460ff161515151581526020016004820160019054906101000a900460ff16151515158152505084868151811061238e5761238d613fb4565b5b60200260200101819052506001856123a69190613f80565b9450505080806123b590613fe3565b915050612249565b5080935050505090565b6000600560008473ffffffffffffffffffffffffffffffffffffffff1673ffffffffffffffffffffffffffffffffffffffff16815260200190815260200160002060008373ffffffffffffffffffffffffffffffffffffffff1673ffffffffffffffffffffffffffffffffffffffff16815260200190815260200160002060009054906101000a900460ff16905092915050565b60007f80ac58cd000000000000000000000000000000000000000000000000000000007bffffffffffffffffffffffffffffffffffffffffffffffffffffffff1916827bffffffffffffffffffffffffffffffffffffffffffffffffffffffff1916148061252657507f5b5e139f000000000000000000000000000000000000000000000000000000007bffffffffffffffffffffffffffffffffffffffffffffffffffffffff1916827bffffffffffffffffffffffffffffffffffffffffffffffffffffffff1916145b80612536575061253582612f99565b5b9050919050565b61254681613003565b612585576040517f08c379a000000000000000000000000000000000000000000000000000000000815260040161257c906143fc565b60405180910390fd5b50565b600033905090565b816004600083815260200190815260200160002060006101000a81548173ffffffffffffffffffffffffffffffffffffffff021916908373ffffffffffffffffffffffffffffffffffffffff160217905550808273ffffffffffffffffffffffffffffffffffffffff1661260383611764565b73ffffffffffffffffffffffffffffffffffffffff167f8c5be1e5ebec7d5bd14f71427d1e84f3dd0314c0f7b2291e5b200ac8c7c3b92560405160405180910390a45050565b600081600001549050919050565b60008061266383611764565b90508073ffffffffffffffffffffffffffffffffffffffff168473ffffffffffffffffffffffffffffffffffffffff1614806126a557506126a481856123c7565b5b806126e357508373ffffffffffffffffffffffffffffffffffffffff166126cb846106fa565b73ffffffffffffffffffffffffffffffffffffffff16145b91505092915050565b8273ffffffffffffffffffffffffffffffffffffffff1661270c82611764565b73ffffffffffffffffffffffffffffffffffffffff1614612762576040517f08c379a000000000000000000000000000000000000000000000000000000000815260040161275990614721565b60405180910390fd5b600073ffffffffffffffffffffffffffffffffffffffff168273ffffffffffffffffffffffffffffffffffffffff16036127d1576040517f08c379a00000000000000000000000000000000000000000000000000000000081526004016127c8906147b3565b60405180910390fd5b6127de8383836001613044565b8273ffffffffffffffffffffffffffffffffffffffff166127fe82611764565b73ffffffffffffffffffffffffffffffffffffffff1614612854576040517f08c379a000000000000000000000000000000000000000000000000000000000815260040161284b90614721565b60405180910390fd5b6004600082815260200190815260200160002060006101000a81549073ffffffffffffffffffffffffffffffffffffffff02191690556001600360008573ffffffffffffffffffffffffffffffffffffffff1673ffffffffffffffffffffffffffffffffffffffff168152602001908152602001600020600082825403925050819055506001600360008473ffffffffffffffffffffffffffffffffffffffff1673ffffffffffffffffffffffffffffffffffffffff16815260200190815260200160002060008282540192505081905550816002600083815260200190815260200160002060006101000a81548173ffffffffffffffffffffffffffffffffffffffff021916908373ffffffffffffffffffffffffffffffffffffffff160217905550808273ffffffffffffffffffffffffffffffffffffffff168473ffffffffffffffffffffffffffffffffffffffff167fddf252ad1be2c89b69c2b068fc378daa952ba7f163c4a11628f55a4df523b3ef60405160405180910390a46129e0838383600161304a565b505050565b600260075403612a2a576040517f08c379a0000000000000000000000000000000000000000000000000000000008152600401612a219061481f565b60405180910390fd5b6002600781905550565b6001600781905550565b60006002600083815260200190815260200160002060009054906101000a900473ffffffffffffffffffffffffffffffffffffffff169050919050565b6001816000016000828254019250508190555050565b600073ffffffffffffffffffffffffffffffffffffffff168273ffffffffffffffffffffffffffffffffffffffff1603612b00576040517f08c379a0000000000000000000000000000000000000000000000000000000008152600401612af79061488b565b60405180910390fd5b612b0981613003565b15612b49576040517f08c379a0000000000000000000000000000000000000000000000000000000008152600401612b40906148f7565b60405180910390fd5b612b57600083836001613044565b612b6081613003565b15612ba0576040517f08c379a0000000000000000000000000000000000000000000000000000000008152600401612b97906148f7565b60405180910390fd5b6001600360008473ffffffffffffffffffffffffffffffffffffffff1673ffffffffffffffffffffffffffffffffffffffff16815260200190815260200160002060008282540192505081905550816002600083815260200190815260200160002060006101000a81548173ffffffffffffffffffffffffffffffffffffffff021916908373ffffffffffffffffffffffffffffffffffffffff160217905550808273ffffffffffffffffffffffffffffffffffffffff16600073ffffffffffffffffffffffffffffffffffffffff167fddf252ad1be2c89b69c2b068fc378daa952ba7f163c4a11628f55a4df523b3ef60405160405180910390a4612caa60008383600161304a565b5050565b612cb782613003565b612cf6576040517f08c379a0000000000000000000000000000000000000000000000000000000008152600401612ced90614989565b60405180910390fd5b80600660008481526020019081526020016000209081612d169190614b55565b507ff8e1a15aba9398e019f0b49df1a4fde98ee17ae345cb5f6b5e2c27f5033e8ce782604051612d4691906138c7565b60405180910390a15050565b8173ffffffffffffffffffffffffffffffffffffffff168373ffffffffffffffffffffffffffffffffffffffff1603612dc0576040517f08c379a0000000000000000000000000000000000000000000000000000000008152600401612db790614c73565b60405180910390fd5b80600560008573ffffffffffffffffffffffffffffffffffffffff1673ffffffffffffffffffffffffffffffffffffffff16815260200190815260200160002060008473ffffffffffffffffffffffffffffffffffffffff1673ffffffffffffffffffffffffffffffffffffffff16815260200190815260200160002060006101000a81548160ff0219169083151502179055508173ffffffffffffffffffffffffffffffffffffffff168373ffffffffffffffffffffffffffffffffffffffff167f17307eab39ab6107e8899845ad3d59bd9653f200f220920489ca2b5937696c3183604051612eb19190613535565b60405180910390a3505050565b612ec98484846126ec565b612ed584848484613050565b612f14576040517f08c379a0000000000000000000000000000000000000000000000000000000008152600401612f0b90614d05565b60405180910390fd5b50505050565b606060405180602001604052806000815250905090565b6060612f3c8261253d565b6000612f46612f1a565b90506000815111612f665760405180602001604052806000815250612f91565b80612f70846131d7565b604051602001612f8192919061468b565b6040516020818303038152906040525b915050919050565b60007f01ffc9a7000000000000000000000000000000000000000000000000000000007bffffffffffffffffffffffffffffffffffffffffffffffffffffffff1916827bffffffffffffffffffffffffffffffffffffffffffffffffffffffff1916149050919050565b60008073ffffffffffffffffffffffffffffffffffffffff1661302583612a3e565b73ffffffffffffffffffffffffffffffffffffffff1614159050919050565b50505050565b50505050565b60006130718473ffffffffffffffffffffffffffffffffffffffff166132a5565b156131ca578373ffffffffffffffffffffffffffffffffffffffff1663150b7a0261309a612588565b8786866040518563ffffffff1660e01b81526004016130bc9493929190614d7a565b6020604051808303816000875af19250505080156130f857506040513d601f19601f820116820180604052508101906130f59190614ddb565b60015b61317a573d8060008114613128576040519150601f19603f3d011682016040523d82523d6000602084013e61312d565b606091505b506000815103613172576040517f08c379a000000000000000000000000000000000000000000000000000000000815260040161316990614d05565b60405180910390fd5b805181602001fd5b63150b7a0260e01b7bffffffffffffffffffffffffffffffffffffffffffffffffffffffff1916817bffffffffffffffffffffffffffffffffffffffffffffffffffffffff1916149150506131cf565b600190505b949350505050565b6060600060016131e6846132c8565b01905060008167ffffffffffffffff811115613205576132046139ac565b5b6040519080825280601f01601f1916602001820160405280156132375781602001600182028036833780820191505090505b509050600082602001820190505b60011561329a578080600190039150507f3031323334353637383961626364656600000000000000000000000000000000600a86061a8153600a858161328e5761328d614e08565b5b04945060008503613245575b819350505050919050565b6000808273ffffffffffffffffffffffffffffffffffffffff163b119050919050565b600080600090507a184f03e93ff9f4daa797ed6e38ed64bf6a1f0100000000000000008310613326577a184f03e93ff9f4daa797ed6e38ed64bf6a1f010000000000000000838161331c5761331b614e08565b5b0492506040810190505b6d04ee2d6d415b85acef81000000008310613363576d04ee2d6d415b85acef8100000000838161335957613358614e08565b5b0492506020810190505b662386f26fc10000831061339257662386f26fc10000838161338857613387614e08565b5b0492506010810190505b6305f5e10083106133bb576305f5e10083816133b1576133b0614e08565b5b0492506008810190505b61271083106133e05761271083816133d6576133d5614e08565b5b0492506004810190505b6064831061340357606483816133f9576133f8614e08565b5b0492506002810190505b600a8310613412576001810190505b80915050919050565b6040518060c0016040528060008152602001600073ffffffffffffffffffffffffffffffffffffffff168152602001600073ffffffffffffffffffffffffffffffffffffffff168152602001600081526020016000151581526020016000151581525090565b6000604051905090565b600080fd5b600080fd5b60007fffffffff0000000000000000000000000000000000000000000000000000000082169050919050565b6134ca81613495565b81146134d557600080fd5b50565b6000813590506134e7816134c1565b92915050565b6000602082840312156135035761350261348b565b5b6000613511848285016134d8565b91505092915050565b60008115159050919050565b61352f8161351a565b82525050565b600060208201905061354a6000830184613526565b92915050565b600081519050919050565b600082825260208201905092915050565b60005b8381101561358a57808201518184015260208101905061356f565b60008484015250505050565b6000601f19601f8301169050919050565b60006135b282613550565b6135bc818561355b565b93506135cc81856020860161356c565b6135d581613596565b840191505092915050565b600060208201905081810360008301526135fa81846135a7565b905092915050565b6000819050919050565b61361581613602565b811461362057600080fd5b50565b6000813590506136328161360c565b92915050565b60006020828403121561364e5761364d61348b565b5b600061365c84828501613623565b91505092915050565b600073ffffffffffffffffffffffffffffffffffffffff82169050919050565b600061369082613665565b9050919050565b6136a081613685565b82525050565b60006020820190506136bb6000830184613697565b92915050565b6136ca81613685565b81146136d557600080fd5b50565b6000813590506136e7816136c1565b92915050565b600080604083850312156137045761370361348b565b5b6000613712858286016136d8565b925050602061372385828601613623565b9150509250929050565b600081519050919050565b600082825260208201905092915050565b6000819050602082019050919050565b61376281613602565b82525050565b600061377382613665565b9050919050565b61378381613768565b82525050565b6137928161351a565b82525050565b60c0820160008201516137ae6000850182613759565b5060208201516137c1602085018261377a565b5060408201516137d4604085018261377a565b5060608201516137e76060850182613759565b5060808201516137fa6080850182613789565b5060a082015161380d60a0850182613789565b50505050565b600061381f8383613798565b60c08301905092915050565b6000602082019050919050565b60006138438261372d565b61384d8185613738565b935061385883613749565b8060005b838110156138895781516138708882613813565b975061387b8361382b565b92505060018101905061385c565b5085935050505092915050565b600060208201905081810360008301526138b08184613838565b905092915050565b6138c181613602565b82525050565b60006020820190506138dc60008301846138b8565b92915050565b6000806000606084860312156138fb576138fa61348b565b5b6000613909868287016136d8565b935050602061391a868287016136d8565b925050604061392b86828701613623565b9150509250925092565b6000806040838503121561394c5761394b61348b565b5b600061395a85828601613623565b925050602061396b85828601613623565b9150509250929050565b60006020828403121561398b5761398a61348b565b5b6000613999848285016136d8565b91505092915050565b600080fd5b600080fd5b7f4e487b7100000000000000000000000000000000000000000000000000000000600052604160045260246000fd5b6139e482613596565b810181811067ffffffffffffffff82111715613a0357613a026139ac565b5b80604052505050565b6000613a16613481565b9050613a2282826139db565b919050565b600067ffffffffffffffff821115613a4257613a416139ac565b5b613a4b82613596565b9050602081019050919050565b82818337600083830152505050565b6000613a7a613a7584613a27565b613a0c565b905082815260208101848484011115613a9657613a956139a7565b5b613aa1848285613a58565b509392505050565b600082601f830112613abe57613abd6139a2565b5b8135613ace848260208601613a67565b91505092915050565b60008060408385031215613aee57613aed61348b565b5b600083013567ffffffffffffffff811115613b0c57613b0b613490565b5b613b1885828601613aa9565b9250506020613b2985828601613623565b9150509250929050565b613b3c8161351a565b8114613b4757600080fd5b50565b600081359050613b5981613b33565b92915050565b60008060408385031215613b7657613b7561348b565b5b6000613b84858286016136d8565b9250506020613b9585828601613b4a565b9150509250929050565b600067ffffffffffffffff821115613bba57613bb96139ac565b5b613bc382613596565b9050602081019050919050565b6000613be3613bde84613b9f565b613a0c565b905082815260208101848484011115613bff57613bfe6139a7565b5b613c0a848285613a58565b509392505050565b600082601f830112613c2757613c266139a2565b5b8135613c37848260208601613bd0565b91505092915050565b60008060008060808587031215613c5a57613c5961348b565b5b6000613c68878288016136d8565b9450506020613c79878288016136d8565b9350506040613c8a87828801613623565b925050606085013567ffffffffffffffff811115613cab57613caa613490565b5b613cb787828801613c12565b91505092959194509250565b60c082016000820151613cd96000850182613759565b506020820151613cec602085018261377a565b506040820151613cff604085018261377a565b506060820151613d126060850182613759565b506080820151613d256080850182613789565b5060a0820151613d3860a0850182613789565b50505050565b600060c082019050613d536000830184613cc3565b92915050565b60008060408385031215613d7057613d6f61348b565b5b6000613d7e858286016136d8565b9250506020613d8f858286016136d8565b9150509250929050565b7f4e487b7100000000000000000000000000000000000000000000000000000000600052602260045260246000fd5b60006002820490506001821680613de057607f821691505b602082108103613df357613df2613d99565b5b50919050565b7f4552433732313a20617070726f76616c20746f2063757272656e74206f776e6560008201527f7200000000000000000000000000000000000000000000000000000000000000602082015250565b6000613e5560218361355b565b9150613e6082613df9565b604082019050919050565b60006020820190508181036000830152613e8481613e48565b9050919050565b7f4552433732313a20617070726f76652063616c6c6572206973206e6f7420746f60008201527f6b656e206f776e6572206f7220617070726f76656420666f7220616c6c000000602082015250565b6000613ee7603d8361355b565b9150613ef282613e8b565b604082019050919050565b60006020820190508181036000830152613f1681613eda565b9050919050565b7f4e487b7100000000000000000000000000000000000000000000000000000000600052601160045260246000fd5b6000613f5782613602565b9150613f6283613602565b9250828203905081811115613f7a57613f79613f1d565b5b92915050565b6000613f8b82613602565b9150613f9683613602565b9250828201905080821115613fae57613fad613f1d565b5b92915050565b7f4e487b7100000000000000000000000000000000000000000000000000000000600052603260045260246000fd5b6000613fee82613602565b91507fffffffffffffffffffffffffffffffffffffffffffffffffffffffffffffffff82036140205761401f613f1d565b5b600182019050919050565b7f4552433732313a2063616c6c6572206973206e6f7420746f6b656e206f776e6560008201527f72206f7220617070726f76656400000000000000000000000000000000000000602082015250565b6000614087602d8361355b565b91506140928261402b565b604082019050919050565b600060208201905081810360008301526140b68161407a565b9050919050565b7f4f6e6c792073656c6c65722063616e2077697468647261770000000000000000600082015250565b60006140f360188361355b565b91506140fe826140bd565b602082019050919050565b60006020820190508181036000830152614122816140e6565b9050919050565b7f4974656d206e6f74206c69737465640000000000000000000000000000000000600082015250565b600061415f600f8361355b565b915061416a82614129565b602082019050919050565b6000602082019050818103600083015261418e81614152565b9050919050565b7f4974656d20616c726561647920736f6c64000000000000000000000000000000600082015250565b60006141cb60118361355b565b91506141d682614195565b602082019050919050565b600060208201905081810360008301526141fa816141be565b9050919050565b7f5072696365206d757374206265206174206c6561737420312077656900000000600082015250565b6000614237601c8361355b565b915061424282614201565b602082019050919050565b600060208201905081810360008301526142668161422a565b9050919050565b7f5072696365206d75737420626520657175616c20746f206c697374696e67207060008201527f7269636500000000000000000000000000000000000000000000000000000000602082015250565b60006142c960248361355b565b91506142d48261426d565b604082019050919050565b600060208201905081810360008301526142f8816142bc565b9050919050565b7f4f6e6c7920746f6b656e206f776e65722063616e206c69737400000000000000600082015250565b600061433560198361355b565b9150614340826142ff565b602082019050919050565b6000602082019050818103600083015261436481614328565b9050919050565b60006080820190506143806000830187613697565b61438d6020830186613697565b61439a60408301856138b8565b6143a76060830184613526565b95945050505050565b7f4552433732313a20696e76616c696420746f6b656e2049440000000000000000600082015250565b60006143e660188361355b565b91506143f1826143b0565b602082019050919050565b60006020820190508181036000830152614415816143d9565b9050919050565b7f4552433732313a2061646472657373207a65726f206973206e6f74206120766160008201527f6c6964206f776e65720000000000000000000000000000000000000000000000602082015250565b600061447860298361355b565b91506144838261441c565b604082019050919050565b600060208201905081810360008301526144a78161446b565b9050919050565b7f4f6e6c79206d61726b6574706c616365206f776e65722063616e2063616c6c2060008201527f7468697300000000000000000000000000000000000000000000000000000000602082015250565b600061450a60248361355b565b9150614515826144ae565b604082019050919050565b60006020820190508181036000830152614539816144fd565b9050919050565b7f506c65617365207375626d6974207468652061736b696e672070726963650000600082015250565b6000614576601e8361355b565b915061458182614540565b602082019050919050565b600060208201905081810360008301526145a581614569565b9050919050565b7f4974656d206e6f74206c697374656420666f722073616c650000000000000000600082015250565b60006145e260188361355b565b91506145ed826145ac565b602082019050919050565b60006020820190508181036000830152614611816145d5565b9050919050565b600060608201905061462d6000830186613697565b61463a6020830185613697565b61464760408301846138b8565b949350505050565b600081905092915050565b600061466582613550565b61466f818561464f565b935061467f81856020860161356c565b80840191505092915050565b6000614697828561465a565b91506146a3828461465a565b91508190509392505050565b7f4552433732313a207472616e736665722066726f6d20696e636f72726563742060008201527f6f776e6572000000000000000000000000000000000000000000000000000000602082015250565b600061470b60258361355b565b9150614716826146af565b604082019050919050565b6000602082019050818103600083015261473a816146fe565b9050919050565b7f4552433732313a207472616e7366657220746f20746865207a65726f2061646460008201527f7265737300000000000000000000000000000000000000000000000000000000602082015250565b600061479d60248361355b565b91506147a882614741565b604082019050919050565b600060208201905081810360008301526147cc81614790565b9050919050565b7f5265656e7472616e637947756172643a207265656e7472616e742063616c6c00600082015250565b6000614809601f8361355b565b9150614814826147d3565b602082019050919050565b60006020820190508181036000830152614838816147fc565b9050919050565b7f4552433732313a206d696e7420746f20746865207a65726f2061646472657373600082015250565b600061487560208361355b565b91506148808261483f565b602082019050919050565b600060208201905081810360008301526148a481614868565b9050919050565b7f4552433732313a20746f6b656e20616c7265616479206d696e74656400000000600082015250565b60006148e1601c8361355b565b91506148ec826148ab565b602082019050919050565b60006020820190508181036000830152614910816148d4565b9050919050565b7f45524337323155524953746f726167653a2055524920736574206f66206e6f6e60008201527f6578697374656e7420746f6b656e000000000000000000000000000000000000602082015250565b6000614973602e8361355b565b915061497e82614917565b604082019050919050565b600060208201905081810360008301526149a281614966565b9050919050565b60008190508160005260206000209050919050565b60006020601f8301049050919050565b600082821b905092915050565b600060088302614a0b7fffffffffffffffffffffffffffffffffffffffffffffffffffffffffffffffff826149ce565b614a1586836149ce565b95508019841693508086168417925050509392505050565b6000819050919050565b6000614a52614a4d614a4884613602565b614a2d565b613602565b9050919050565b6000819050919050565b614a6c83614a37565b614a80614a7882614a59565b8484546149db565b825550505050565b600090565b614a95614a88565b614aa0818484614a63565b505050565b5b81811015614ac457614ab9600082614a8d565b600181019050614aa6565b5050565b601f821115614b0957614ada816149a9565b614ae3846149be565b81016020851015614af2578190505b614b06614afe856149be565b830182614aa5565b50505b505050565b600082821c905092915050565b6000614b2c60001984600802614b0e565b1980831691505092915050565b6000614b458383614b1b565b9150826002028217905092915050565b614b5e82613550565b67ffffffffffffffff811115614b7757614b766139ac565b5b614b818254613dc8565b614b8c828285614ac8565b600060209050601f831160018114614bbf5760008415614bad578287015190505b614bb78582614b39565b865550614c1f565b601f198416614bcd866149a9565b60005b82811015614bf557848901518255600182019150602085019450602081019050614bd0565b86831015614c125784890151614c0e601f891682614b1b565b8355505b6001600288020188555050505b505050505050565b7f4552433732313a20617070726f766520746f2063616c6c657200000000000000600082015250565b6000614c5d60198361355b565b9150614c6882614c27565b602082019050919050565b60006020820190508181036000830152614c8c81614c50565b9050919050565b7f4552433732313a207472616e7366657220746f206e6f6e20455243373231526560008201527f63656976657220696d706c656d656e7465720000000000000000000000000000602082015250565b6000614cef60328361355b565b9150614cfa82614c93565b604082019050919050565b60006020820190508181036000830152614d1e81614ce2565b9050919050565b600081519050919050565b600082825260208201905092915050565b6000614d4c82614d25565b614d568185614d30565b9350614d6681856020860161356c565b614d6f81613596565b840191505092915050565b6000608082019050614d8f6000830187613697565b614d9c6020830186613697565b614da960408301856138b8565b8181036060830152614dbb8184614d41565b905095945050505050565b600081519050614dd5816134c1565b92915050565b600060208284031215614df157614df061348b565b5b6000614dff84828501614dc6565b91505092915050565b7f4e487b7100000000000000000000000000000000000000000000000000000000600052601260045260246000fdfea26469706673582212209527b8421ad11bcae12a71bdd54b098fea9a358b641a78c876cfb16f191c207264736f6c63430008130033",
  "linkReferences": {},
  "deployedLinkReferences": {}
}